:100000000C9435000C945D000C945D000C945D0024
:100010000C945D000C945D000C945D000C945D00EC
:100020000C945D000C945D000C945D000C945D00DC
:100030000C945D000C945D000C945D000C945D00CC
:100040000C94A0020C945D000C946E020C94480277
:100050000C945D000C945D000C945D000C945D00AC
:100060000C945D000C945D00B60511241FBECFEF0B
:10007000D8E0DEBFCDBF12E0A0E0B1E0EEEAF2E1F1
:1000800002C005900D92AC38B107D9F723E0ACE877
:10009000B2E001C01D92AC33B207E1F710E0C5E356
:1000A000D0E004C02197FE010E945D07C433D10750
:1000B000C9F70E94EA020C9455090C940000AF9213
:1000C000BF92CF92DF92EF92FF920F931F93CF9345
:1000D000DF936C017B018B01040F151FEB015E01A7
:1000E000AE18BF08C017D10759F06991D601ED913C
:1000F000FC910190F081E02DC6010995892B79F7DB
:10010000C501DF91CF911F910F91FF90EF90DF908C
:10011000CF90BF90AF900895FC01538D448D252F53
:1001200030E0842F90E0821B930B541710F0CF9691
:10013000089501970895FC01918D828D981761F0C3
:10014000A28DAE0FBF2FB11D5D968C91928D9F5FDA
:100150009F73928F90E008958FEF9FEF08952FB7D0
:10016000F8948091970290919802A0919902B09191
:100170009A022FBF8093A3029093A402A093A5029A
:10018000B093A6028BE992E00E949B0097FF26C0E5
:100190002FB7F8948091970290919802A0919902BC
:1001A000B0919A022FBF4091A3025091A402609196
:1001B000A5027091A602841B950BA60BB70B40916C
:1001C0009F025091A0026091A1027091A202841737
:1001D0009507A607B707B0F28FEF9FEF0895FC01D0
:1001E000918D828D981731F0828DE80FF11D858DEC
:1001F00090E008958FEF9FEF0895FC01918D228D7F
:10020000892F90E0805C9F4F821B91098F73992703
:1002100008958BE992E00E94FD0021E0892B09F40A
:1002200020E0822F089580E090E0892B29F00E9441
:10023000090181110C9400000895FC01A48DA80F00
:10024000B92FB11DA35ABF4F2C91848D90E0019618
:100250008F739927848FA689B7892C93A089B18938
:100260008C91837080648C93938D848D981306C0D9
:100270000288F389E02D80818F7D80830895EF923D
:10028000FF920F931F93CF93DF93EC0181E0888F50
:100290009B8D8C8D98131AC0E889F989808185FF20
:1002A00015C09FB7F894EE89FF896083E889F989C2
:1002B00080818370806480839FBF81E090E0DF91C4
:1002C000CF911F910F91FF90EF900895F62E0B8D17
:1002D00010E00F5F1F4F0F731127E02E8C8D8E11D2
:1002E0000CC00FB607FCFACFE889F989808185FF39
:1002F000F5CFCE010E941D01F1CFEB8DEC0FFD2F4C
:10030000F11DE35AFF4FF0829FB7F8940B8FEA89F3
:10031000FB8980818062CFCFCF93DF93EC01888D02
:100320008823B9F0AA89BB89E889F9898C9185FD70
:1003300003C0808186FD0DC00FB607FCF7CF8C91FE
:1003400085FFF2CF808185FFEDCFCE010E941D0198
:10035000E9CFDF91CF9108953FB7F89480918D0256
:1003600090918E02A0918F02B091900226B5A89B29
:1003700005C02F3F19F00196A11DB11D3FBFBA2F37
:10038000A92F982F8827BC01CD01620F711D811DF7
:10039000911D42E0660F771F881F991F4A95D1F77C
:1003A00008958F929F92AF92BF92CF92DF92EF9279
:1003B000FF924B015C010E94AC016B017C010E9429
:1003C000AC016C197D098E099F09683E7340810557
:1003D0009105A8F321E0821A9108A108B10888EEDE
:1003E000C80E83E0D81EE11CF11C81149104A10405
:1003F000B10429F7FF90EF90DF90CF90BF90AF90BE
:100400009F908F900895CF93DF93FC01019000207F
:10041000E9F73197AF01481B590BBC018BE992E01A
:100420000E945F00EC0142E050E06CE171E08BE97A
:1004300092E00E945F008C0F9D1FDF91CF91089585
:100440000F931F93CF93DF93EC01888199810097DD
:1004500059F02A813B812617370730F081E0DF9180
:10046000CF911F910F9108958B016F5F7F4F0E9475
:100470008808009759F0998388831B830A832C810D
:100480003D81232B59F7FC011082E8CF80E0E7CFB4
:100490001F920F920FB60F9211242F933F934F93F9
:1004A0005F936F937F938F939F93AF93BF93EF93DC
:1004B000FF938BE992E00E941D01FF91EF91BF91A4
:1004C000AF919F918F917F916F915F914F913F91EC
:1004D0002F910F900FBE0F901F9018951F920F92A3
:1004E0000FB60F9211242F938F939F93EF93FF9347
:1004F000E091AB02F091AC028081E091B102F09109
:10050000B20282FD1BC090818091B4028F5F8F7315
:100510002091B502821741F0E091B402F0E0E55677
:10052000FD4F958F8093B402FF91EF919F918F9132
:100530002F910F900FBE0F901F9018958081F4CFD0
:100540001F920F920FB60F9211242F933F938F9308
:100550009F93AF93BF938091970290919802A0913F
:100560009902B0919A0230918C0223E0230F2D372B
:1005700058F50196A11DB11D20938C02809397021E
:1005800090939802A0939902B0939A0280918D0261
:1005900090918E02A0918F02B09190020196A11DC0
:1005A000B11D80938D0290938E02A0938F02B09321
:1005B0009002BF91AF919F918F913F912F910F909A
:1005C0000FBE0F901F90189526E8230F0296A11DCD
:1005D000B11DD2CFCF93DF93CDB7DEB728970FB63B
:1005E000F894DEBF0FBECDBF789484B5826084BD21
:1005F00084B5816084BD85B5826085BD85B5816027
:1006000085BD80916E00816080936E0010928100A4
:10061000809181008260809381008091810081605F
:100620008093810080918000816080938000809120
:10063000B10084608093B1008091B00081608093AC
:10064000B00080917A00846080937A0080917A0073
:10065000826080937A0080917A00816080937A0032
:1006600080917A00806880937A001092C100E091B6
:10067000AB02F091AC0282E08083E091A702F0919E
:10068000A8021082E091A902F091AA028FEC808367
:100690001092B302E091AF02F091B00286E0808345
:1006A000E091AD02F091AE02808180618083E091A3
:1006B000AD02F091AE02808188608083E091AD024E
:1006C000F091AE02808180688083E091AD02F0916C
:1006D000AE0280818F7D808383E0C82ED12CE12CF7
:1006E000F12C00E010E0809195029091960281300B
:1006F000910509F421C16CF4892B09F495C0011509
:10070000110589F30E940901882369F30E94000002
:10071000EACF8230910509F4A4C1039781F70E94C2
:100720002F06A70196010E94C306DC01CB010196AA
:10073000A11DB11D9093920280939102019731F512
:1007400081E792E00E94030264E670E080E090E0BE
:100750000E94D10180EC91E00E94030285EC91E0BF
:100760000E94030264E670E080E090E00E94D10104
:1007700082E192E00E94030268EE73E080E090E084
:100780000E94D101109296021092950280919102DE
:1007900090919202029731F581E792E00E94030264
:1007A00064E670E080E090E00E94D10180EC91E08E
:1007B0000E94030285EF91E00E94030264E670E06C
:1007C00080E090E00E94D10184E492E00E94030264
:1007D00068EE73E080E090E00E94D10110929602F2
:1007E000109295028091910290919202039709F0E4
:1007F00086CF81E792E00E94030264E670E080E029
:1008000090E00E94D10180EC91E00E94030286E218
:1008100092E00E94030264E670E080E090E00E94B3
:10082000D10183EE91E00CC18EE191E00E940302C0
:100830008FE191E00E94030280E691E00E940302B2
:100840008CE691E00E94030287E791E00E94030298
:100850001A8219821C821B821E821D8270E060E057
:10086000CE0101960E94200229813A8181112CC07B
:100870002115310519F0C9010E94FF071A8219825A
:100880001E821D821C821B820E94AF0097FD24C025
:100890008F831886AD80BE808FEFA81AB80AB50185
:1008A000CE0101960E942002882371F329813A81AA
:1008B0008D819E81BE01695F7F4F820F931F0E94D1
:1008C0004E09BE82AD82E0CF1E821D826EE171E0D4
:1008D000C9010E944E09D8CFA980BA8060E070E0BB
:1008E000CB01A114B10419F0C5010E9487067093D1
:1008F000940260939302A114B10419F0C5010E94FF
:10090000FF078EE191E00E94030283E891E00E94DC
:1009100003026CED75E080E090E00E94D1018EE171
:1009200091E00E940302809193029091940290932F
:10093000960280939502E3CE0E942F06A7019601AE
:100940000E94C306DC01CB010196A11DB11D90934D
:10095000920280939102019731F585EA91E00E941D
:10096000030264E670E080E090E00E94D10180EC38
:1009700091E00E94030285EC91E00E94030264E68C
:1009800070E080E090E00E94D10183EE91E00E944F
:10099000030268EE73E080E090E00E94D1011092C3
:1009A0009602109295028091910290919202029784
:1009B00031F585EA91E00E94030264E670E080E090
:1009C00090E00E94D10180EC91E00E94030285EF4B
:1009D00091E00E94030264E670E080E090E00E94F3
:1009E000D10182E192E00E94030268EE73E080E0B0
:1009F00090E00E94D101109296021092950280918F
:100A0000910290919202039709F079CE85EA91E0E4
:100A10000E94030264E670E080E090E00E94D10151
:100A200080EC91E00E94030286E292E00E940302C1
:100A300064E670E080E090E00E94D10184E492E0FE
:100A40000E9403028EE591E00E94030268EE73E0CB
:100A500080E090E00E94D1011092960210929502DF
:100A60004ECE0E942F06A70196010E94C306DC010C
:100A7000CB010196A11DB11D90939202809391022A
:100A8000019731F587E592E00E94030264E670E089
:100A900080E090E00E94D10180EC91E00E9403028E
:100AA00085EC91E00E94030264E670E080E090E053
:100AB0000E94D10184E492E00E94030268EE73E098
:100AC00080E090E00E94D10110929602109295026F
:100AD0008091910290919202029731F587E592E020
:100AE0000E94030264E670E080E090E00E94D10181
:100AF00080EC91E00E94030285EF91E00E940302E6
:100B000064E670E080E090E00E94D10183EE91E025
:100B10000E94030268EE73E080E090E00E94D10141
:100B200010929602109295028091910290919202F9
:100B3000039709F0E4CD87E592E00E94030264E6A2
:100B400070E080E090E00E94D10180EC91E00E9492
:100B5000030286E292E00E94030264E670E080E015
:100B600090E00E94D10182E192E06ACFEBE9F2E0ED
:100B70001382128288EE93E0A0E0B0E08483958334
:100B8000A683B7838EE091E09183808385EC90E02B
:100B90009587848784EC90E09787868780EC90E047
:100BA000918B808B81EC90E0938B828B82EC90E038
:100BB000958B848B86EC90E0978B868B118E128EB2
:100BC000138E148E08958F929F92AF92BF92CF9200
:100BD000DF92EF92FF92CF93DF93EC0168817981EE
:100BE0008A819B81611571058105910521F464E27B
:100BF00079ED8BE597E02DE133EF41E050E00E9485
:100C0000C30649015A019B01AC01A7EAB1E40E9465
:100C1000E2066B017C01ACEEB4EFA50194010E94E9
:100C2000F006C60ED71EE81EF91EF7FE06C081E0CC
:100C3000C81AD108E10880E8F80AC882D982EA8295
:100C4000FB82C701B6019F77DF91CF91FF90EF90B4
:100C5000DF90CF90BF90AF909F908F9008958F922C
:100C60009F92AF92BF92CF92DF92EF92FF926091EC
:100C700000017091010180910201909103016115C1
:100C800071058105910521F464E279ED8BE597E02A
:100C90002DE133EF41E050E00E94C30649015A01C3
:100CA0009B01AC01A7EAB1E40E94E2066B017C0162
:100CB000ACEEB4EFA50194010E94F006C60ED71E5B
:100CC000E81EF91EF7FE06C081E0C81AD108E10847
:100CD00080E8F80AC0920001D0920101E09202017E
:100CE000F0920301C701B6019F77FF90EF90DF906C
:100CF000CF90BF90AF909F908F9008956093000128
:100D000070930101809302019093030108951F9352
:100D1000FC0199278827BC01E89411911032E9F36E
:100D2000193010F01E30C8F31B3251F01D3249F457
:100D3000689406C00E94AE06610F711D811D911D51
:100D4000119110531A30B0F33EF490958095709540
:100D500061957F4F8F4F9F4F1F910895592F482FB7
:100D6000372F262F660F771F881F991F660F771F53
:100D7000881F991F620F731F841F951F660F771FAF
:100D8000881F991F0895052E97FB1EF400940E945A
:100D9000DA0657FD07D00E942C0707FC03D04EF45B
:100DA0000C94DA0650954095309521953F4F4F4F62
:100DB0005F4F089590958095709561957F4F8F4F07
:100DC0009F4F08950E944E07A59F900DB49F900DD0
:100DD000A49F800D911D11240895B7FF0C94E20685
:100DE0000E94E206821B930B08952F923F924F922E
:100DF0005F926F927F928F929F92AF92BF92CF92AB
:100E0000DF92EF92FF920F931F93CF93DF93CDB7B3
:100E1000DEB7CA1BDB0B0FB6F894DEBF0FBECDBF2B
:100E200009942A88398848885F846E847D848C84FC
:100E30009B84AA84B984C884DF80EE80FD800C8105
:100E40001B81AA81B981CE0FD11D0FB6F894DEBFE8
:100E50000FBECDBFED010895A1E21A2EAA1BBB1B48
:100E6000FD010DC0AA1FBB1FEE1FFF1FA217B30776
:100E7000E407F50720F0A21BB30BE40BF50B661F8C
:100E8000771F881F991F1A9469F760957095809550
:100E900090959B01AC01BD01CF010895A29FB001C7
:100EA000B39FC001A39F700D811D1124911DB29F9E
:100EB000700D811D1124911D0895EE0FFF1F0590E7
:100EC000F491E02D09940F931F93CF93DF93823019
:100ED000910510F482E090E0E0913A03F0913B0339
:100EE00030E020E0B0E0A0E0309799F42115310522
:100EF00009F44AC0281B390B24303105D8F58A8102
:100F00009B816115710589F1FB0193838283FE0149
:100F100011C0408151810281138148175907E0F0C7
:100F20004817590799F4109761F012960C9312978D
:100F300013961C933296CF01DF91CF911F910F91A1
:100F4000089500933A0310933B03F4CF2115310524
:100F500051F04217530738F0A901DB019A01BD0196
:100F6000DF01F801C1CFEF01F9CF90933B038093EC
:100F70003A03CDCFFE01E20FF31F819391932250EC
:100F8000310939832883D7CF209138033091390331
:100F9000232B41F42091060130910701309339034E
:100FA000209338032091040130910501211531056A
:100FB00041F42DB73EB74091080150910901241B1F
:100FC000350BE0913803F0913903E217F307A0F4F1
:100FD0002E1B3F0B2817390778F0AC014E5F5F4F8F
:100FE0002417350748F04E0F5F1F50933903409385
:100FF0003803819391939FCFF0E0E0E09CCFCF93B3
:10100000DF930097E9F0FC01329713821282A091DE
:101010003A03B0913B03ED0130E020E01097A1F4DA
:1010200020813181820F931F209138033091390341
:101030002817390709F061C0F0933903E0933803AA
:10104000DF91CF910895EA01CE17DF07E8F54A81D5
:101050005B819E0141155105B1F7E901FB83EA83EC
:1010600049915991C40FD51FEC17FD0761F4808198
:1010700091810296840F951FE9019983888382816B
:1010800093819B838A83F0E0E0E012968D919C919E
:1010900013970097B9F52D913C911197CD010296C8
:1010A000820F931F20913803309139032817390795
:1010B00039F6309751F510923B0310923A03B093F2
:1010C0003903A0933803BCCFD383C28340815181BD
:1010D000840F951FC817D90761F44E5F5F4F888151
:1010E0009981480F591F518340838A819B81938343
:1010F00082832115310509F0B0CFF0933B03E093D3
:101100003A039ECFFD01DC01C0CF13821282D7CFFC
:10111000B0E0A0E0EEE8F8E00C94F7068C01009750
:1011200051F4CB010E9463078C01C801CDB7DEB733
:10113000E0E10C941307FC01E60FF71F9C0122501D
:101140003109E217F30708F49DC0D901CD91DC9174
:101150001197C617D70798F0C530D10530F3CE01E7
:1011600004978617970708F3C61BD70B2297C193DE
:10117000D1936D937C93CF010E94FF07D6CF5B0183
:10118000AC1ABD0A4C018C0E9D1EA0913A03B09181
:101190003B03512C412CF12CE12C109731F580911F
:1011A0003803909139038815990509F05CC04616FB
:1011B000570608F058C080910401909105010097EE
:1011C00041F48DB79EB74091080150910901841BED
:1011D000950BE817F90708F055C0F0933903E09331
:1011E0003803F90171836083A0CF8D919C91119791
:1011F00012966C90129713967C901397A815B905C8
:1012000059F56C0142E0C40ED11CCA14DB0420F174
:10121000AC014A195B09DA011296159780F06282D7
:10122000738251834083D9016D937C93E114F1045F
:1012300071F0D7011396FC93EE93129776CF229616
:101240008C0F9D1FF90191838083F301EFCFF09301
:101250003B03E0933A0369CF4816590608F42C0182
:101260007D01D3019ACFCB010E9463077C010097D7
:1012700049F0AE01B8010E944509C8010E94FF076C
:10128000870153CF10E000E050CFFB01DC0102C02A
:1012900001900D9241505040D8F70895FB01DC01B8
:0E12A00001900D920020E1F70895F894FFCF21
:1012AE000100000000003C038000000000003F0130
:1012BE005F008C008C01FD009B00EF000D0A0042C8
:1012CE0069656E76656E69646F20557375617269B6
:1012DE006F2073656C656363696F6E6520656C2046
:1012EE006E756D65726F206465206C61206163633D
:1012FE00696F6E207175652075736172613A200099
:10130E00312E2D205069656472612000322E2D2001
:10131E00506170656C2000332E2D2054696A657201
:10132E0061200050726F636573616E646F20696E29
:10133E00666F726D6163696F6E2E2E2E2E2E657323
:10134E0070657265005573756172696F2073656C97
:10135E00656363696F6E6F3A2050696564726100F0
:10136E0020565320004C61206D617175696E6120AD
:10137E0073656C656363696F6E6F3A20506965645F
:10138E00726100526573756C7461646F3A20456DBD
:10139E0070617465004C61206D617175696E6120BC
:1013AE0073656C656363696F6E6F3A20506170652B
:1013BE006C00526573756C7461646F3A205065727F
:1013CE006469737465004C61206D617175696E613D
:1013DE002073656C656363696F6E6F3A2054696A3A
:1013EE0065726100526573756C7461646F3A204763
:1013FE00616E61737465005573756172696F2073E8
:10140E00656C656363696F6E6F3A20506170656CD1
:10141E00005573756172696F2073656C65636369DE
:0C142E006F6E6F3A2054696A65726100AD
:00000001FF
