:100000000C9435000C945D000C945D000C945D0024
:100010000C945D000C945D000C945D000C945D00EC
:100020000C945D000C945D000C945D000C945D00DC
:100030000C945D000C945D000C945D000C945D00CC
:100040000C946D030C945D000C943B030C9415030D
:100050000C945D000C945D000C945D000C945D00AC
:100060000C945D000C945D00770511241FBECFEF4A
:10007000D8E0DEBFCDBF12E0A0E0B1E0EAE9F2E1F6
:1000800002C005900D92A832B107D9F722E0A8E28C
:10009000B2E001C01D92A83DB207E1F710E0C5E350
:1000A000D0E004C02197FE010E945307C433D1075A
:1000B000C9F70E94B7030C944B090C940000AF924F
:1000C000BF92CF92DF92EF92FF920F931F93CF9345
:1000D000DF936C017B018B01040F151FEB015E01A7
:1000E000AE18BF08C017D10759F06991D601ED913C
:1000F000FC910190F081E02DC6010995892B79F7DB
:10010000C501DF91CF911F910F91FF90EF90DF908C
:10011000CF90BF90AF900895FC01538D448D252F53
:1001200030E0842F90E0821B930B541710F0CF9691
:10013000089501970895FC01918D828D981761F0C3
:10014000A28DAE0FBF2FB11D5D968C91928D9F5FDA
:100150009F73928F90E008958FEF9FEF08952FB7D0
:10016000F8948091330290913402A0913502B091BD
:1001700036022FBF80933F0290934002A09341022A
:10018000B093420287E392E00E949B0097FF26C053
:100190002FB7F8948091330290913402A0913502E8
:1001A000B09136022FBF40913F02509140026091C2
:1001B000410270914202841B950BA60BB70B409134
:1001C0003B0250913C0260913D0270913E028417C7
:1001D0009507A607B707B0F28FEF9FEF0895FC01D0
:1001E000918D828D981731F0828DE80FF11D858DEC
:1001F00090E008958FEF9FEF0895FC01918D228D7F
:10020000892F90E0805C9F4F821B91098F73992703
:10021000089587E392E00E94FD0021E0892B09F414
:1002200020E0822F089580E090E0892B29F00E9441
:10023000090181110C9400000895FC01A48DA80F00
:10024000B92FB11DA35ABF4F2C91848D90E0019618
:100250008F739927848FA689B7892C93A089B18938
:100260008C91837080648C93938D848D981306C0D9
:100270000288F389E02D80818F7D80830895EF923D
:10028000FF920F931F93CF93DF93EC0181E0888F50
:100290009B8D8C8D98131AC0E889F989808185FF20
:1002A00015C09FB7F894EE89FF896083E889F989C2
:1002B00080818370806480839FBF81E090E0DF91C4
:1002C000CF911F910F91FF90EF900895F62E0B8D17
:1002D00010E00F5F1F4F0F731127E02E8C8D8E11D2
:1002E0000CC00FB607FCFACFE889F989808185FF39
:1002F000F5CFCE010E941D01F1CFEB8DEC0FFD2F4C
:10030000F11DE35AFF4FF0829FB7F8940B8FEA89F3
:10031000FB8980818062CFCFCF93DF93EC01888D02
:100320008823B9F0AA89BB89E889F9898C9185FD70
:1003300003C0808186FD0DC00FB607FCF7CF8C91FE
:1003400085FFF2CF808185FFEDCFCE010E941D0198
:10035000E9CFDF91CF9108953FB7F89480912902BA
:1003600090912A02A0912B02B0912C0226B5A89B55
:1003700005C02F3F19F00196A11DB11D3FBFBA2F37
:10038000A92F982F8827BC01CD01620F711D811DF7
:10039000911D42E0660F771F881F991F4A95D1F77C
:1003A00008958F929F92AF92BF92CF92DF92EF9279
:1003B000FF924B015C010E94AC016B017C010E9429
:1003C000AC016C197D098E099F09683E7340810557
:1003D0009105A8F321E0821A9108A108B10888EEDE
:1003E000C80E83E0D81EE11CF11C81149104A10405
:1003F000B10429F7FF90EF90DF90CF90BF90AF90BE
:100400009F908F90089542E050E06CE171E087E3A7
:1004100092E00C945F00CF93DF93FC0101900020E9
:10042000E9F73197AF01481B590BBC0187E392E014
:100430000E945F00EC010E9403028C0F9D1FDF9160
:10044000CF910895CF93DF93FC0144815581608162
:10045000718187E392E00E945F00EC010E94030239
:100460008C0F9D1FDF91CF910895FC0180819181B8
:10047000009711F00C94F50708950F931F93CF93F5
:10048000DF93EC0188819981009759F02A813B81A3
:100490002617370730F081E0DF91CF911F910F9140
:1004A00008958B016F5F7F4F0E947E08009759F07F
:1004B000998388831B830A832C813D81232B59F7E1
:1004C000FC011082E8CF80E0E7CFEF92FF920F931C
:1004D0001F93CF93DF93EC01FB01E080F180E114E7
:1004E000F10411F10481158101151105A9F08C8128
:1004F0009D81080F191FB801CE010E943D0288237B
:1005000099F0288139818C819D81B701820F931FD9
:100510000E9444091D830C83CE01DF91CF911F916E
:100520000F91FF90EF90089588819981009711F0C5
:100530000E94F507198218821D821C821B821A8272
:10054000EBCFEF92FF920F931F93CF93DF93EC01CA
:100550007B018A01BA010E943D0228813981811103
:1005600014C02115310519F0C9010E94F50719823F
:1005700018821D821C821B821A82CE01DF91CF91CC
:100580001F910F91FF90EF9008951D830C83B70189
:10059000C9010E944409F1CFEF92FF920F931F937C
:1005A000CF93DF93CDB7DEB762970FB6F894DEBF77
:1005B0000FBECDBF8C01CB01F801118210821382D6
:1005C0001282158214824AE09E012F5F3F4F79010B
:1005D000B9010E946F06F70101900020E9F73197F9
:1005E000AF014E195F09B701C8010E94A1026296CE
:1005F0000FB6F894DEBF0FBECDBFDF91CF911F9134
:100600000F91FF90EF900895FC01118210821382E8
:10061000128215821482FB0101900020E9F73197C4
:10062000AF01461B570B0C94A1021F920F920FB6FD
:100630000F9211242F933F934F935F936F937F9368
:100640008F939F93AF93BF93EF93FF9387E392E0D2
:100650000E941D01FF91EF91BF91AF919F918F91EA
:100660007F916F915F914F913F912F910F900FBEAE
:100670000F901F9018951F920F920FB60F92112492
:100680002F938F939F93EF93FF93E0914702F09105
:1006900048028081E0914D02F0914E0282FD1BC024
:1006A0009081809150028F5F8F7320915102821749
:1006B00041F0E0915002F0E0E95CFD4F958F8093AE
:1006C0005002FF91EF919F918F912F910F900FBE4C
:1006D0000F901F9018958081F4CF1F920F920FB644
:1006E0000F9211242F933F938F939F93AF93BF93B8
:1006F0008091330290913402A0913502B09136027C
:100700003091280223E0230F2D3758F50196A11DC3
:10071000B11D209328028093330290933402A0935A
:100720003502B09336028091290290912A02A0915D
:100730002B02B0912C020196A11DB11D80932902BC
:1007400090932A02A0932B02B0932C02BF91AF91F9
:100750009F918F913F912F910F900FBE0F901F90FF
:10076000189526E8230F0296A11DB11DD2CFCF9375
:10077000DF93CDB7DEB72C970FB6F894DEBF0FBE70
:10078000CDBF789484B5826084BD84B5816084BD1A
:1007900085B5826085BD85B5816085BD80916E001F
:1007A000816080936E001092810080918100826050
:1007B000809381008091810081608093810080918D
:1007C00080008160809380008091B100846080937C
:1007D000B1008091B00081608093B00080917A0078
:1007E000846080937A0080917A00826080937A009E
:1007F00080917A00816080937A0080917A0080688D
:1008000080937A001092C100E0914702F091480273
:1008100082E08083E0914302F09144021082E091F3
:100820004502F09146028FEC808310924F02E091D6
:100830004B02F0914C0286E08083E0914902F091F6
:100840004A02808180618083E0914902F0914A02EE
:10085000808188608083E0914902F0914A02808122
:1008600080688083E0914902F0914A0280818F7D07
:10087000808384E0882E912CA12CB12C90E0E92E6D
:1008800090E0F92ECC24C394D12C80913102909128
:100890003202009769F0019709F46CC0E114F10489
:1008A000A1F30E940901882381F30E940000EDCF8B
:1008B0008EE191E00E940B028FE191E00E940B0219
:1008C0008FE691E00E940B021A8219821C821B8221
:1008D0001E821D8250E040E06EE171E0CE01019683
:1008E0000E94A1020E94AF0097FD1BC08F83188653
:1008F0000D811E810F5F1F4FB801CE0101960E942E
:100900003D02882379F329813A818D819E81BE0140
:10091000695F7F4F820F931F0E9444091E830D83DE
:10092000E1CF89819A81009709F10E94480670936E
:10093000300260932F02CE0101960E9435028EE1B3
:1009400091E00E940B0283E891E00E940B0264ECAC
:1009500079E080E090E00E94D1018EE191E00E9478
:100960000B02D0923202C092310298CF60E070E068
:10097000CB01DDCF0E94F005A50194010E94B906CC
:100980006F5F7F4F8F4F9F4F70932E0260932D02AA
:1009900020912F02309130022617370709F059C0F5
:1009A000CE0101960E94CC0265EA71E0CE01079665
:1009B0000E940403BE016F5F7F4FCE0107960E9425
:1009C00065020E942202CE0107960E943502CE01E6
:1009D00001960E94350264E670E080E090E00E949B
:1009E000D10181E891E00E940B0260912D0270918B
:1009F0002E02CE0101960E94CC0264EC71E0CE0181
:100A000007960E940403BE016F5F7F4FCE010796D9
:100A10000E9465020E942202CE0107960E943502C2
:100A2000CE0101960E94350264E670E080E090E01D
:100A30000E94D10186EE91E00E940B0268EE73E005
:100A400080E090E00E94D1011092320210923102B7
:100A500025CFB901CE0101960E94CC0265EA71E072
:100A6000CE0107960E940403BE016F5F7F4FCE0147
:100A700007960E9465020E942202CE0107960E94FC
:100A80003502CE0101960E94350264E670E080E0F6
:100A900090E00E94D10181E891E00E940B026091F8
:100AA0002D0270912E02CE0101960E94CC0264ECC0
:100AB00071E0CE0107960E940403BE016F5F7F4F75
:100AC000CE0107960E9465020E942202CE0107967F
:100AD0000E943502CE0101960E94350264E670E064
:100AE00080E090E00E94D10183E092E0A5CFE7E3AF
:100AF000F2E01382128288EE93E0A0E0B0E08483FB
:100B00009583A683B7838EE091E09183808385EC03
:100B100090E09587848784EC90E09787868780ECC7
:100B200090E0918B808B81EC90E0938B828B82ECB8
:100B300090E0958B848B86EC90E0978B868B118E62
:100B4000128E138E148E08958F929F92AF92BF9241
:100B5000CF92DF92EF92FF92CF93DF93EC01688107
:100B600079818A819B81611571058105910521F447
:100B700064E279ED8BE597E02DE133EF41E050E061
:100B80000E94B90649015A019B01AC01A7EAB1E4F0
:100B90000E94D8066B017C01ACEEB4EFA501940174
:100BA0000E94E606C60ED71EE81EF91EF7FE06C016
:100BB00081E0C81AD108E10880E8F80AC882D98221
:100BC000EA82FB82C701B6019F77DF91CF91FF9048
:100BD000EF90DF90CF90BF90AF909F908F9008954F
:100BE0008F929F92AF92BF92CF92DF92EF92FF923D
:100BF00060910001709101018091020190910301C7
:100C0000611571058105910521F464E279ED8BE5AB
:100C100097E02DE133EF41E050E00E94B906490131
:100C20005A019B01AC01A7EAB1E40E94D8066B010E
:100C30007C01ACEEB4EFA50194010E94E606C60E5D
:100C4000D71EE81EF91EF7FE06C081E0C81AD108BB
:100C5000E10880E8F80AC0920001D0920101E09218
:100C60000201F0920301C701B6019F77FF90EF9058
:100C7000DF90CF90BF90AF909F908F90089560933A
:100C80000001709301018093020190930301089584
:100C90001F93FC0199278827BC01E8941191103219
:100CA000E9F3193010F01E30C8F31B3251F01D3239
:100CB00049F4689406C00E947A06610F711D811D77
:100CC000911D119110531A30B0F33EF49095809518
:100CD000709561957F4F8F4F9F4F1F910895BB2750
:100CE0004A3031F4992322F4BDE2909581959F4FCB
:100CF0000C949006592F482F372F262F660F771FF9
:100D0000881F991F660F771F881F991F620F731F17
:100D1000841F951F660F771F881F991F0895BB2793
:100D2000FB015527AA27880F991FAA1FA41710F0A7
:100D3000A41B83955051B9F7A05DAA3308F0A95DB3
:100D4000A193009779F7B111B1931192CB010C9453
:100D5000A906DC01FC01672F71917723E1F7329737
:100D600004C07C916D9370836291AE17BF07C8F386
:100D70000895052E97FB1EF400940E94D00657FD9F
:100D800007D00E94220707FC03D04EF40C94D00633
:100D900050954095309521953F4F4F4F5F4F0895A7
:100DA00090958095709561957F4F8F4F9F4F0895D7
:100DB0000E944407A59F900DB49F900DA49F800DA5
:100DC000911D11240895B7FF0C94D8060E94D806EF
:100DD000821B930B08952F923F924F925F926F92D6
:100DE0007F928F929F92AF92BF92CF92DF92EF92BB
:100DF000FF920F931F93CF93DF93CDB7DEB7CA1B3C
:100E0000DB0B0FB6F894DEBF0FBECDBF09942A8866
:100E1000398848885F846E847D848C849B84AA840E
:100E2000B984C884DF80EE80FD800C811B81AA819B
:100E3000B981CE0FD11D0FB6F894DEBF0FBECDBF66
:100E4000ED010895A1E21A2EAA1BBB1BFD010DC0E6
:100E5000AA1FBB1FEE1FFF1FA217B307E407F5076A
:100E600020F0A21BB30BE40BF50B661F771F881F46
:100E7000991F1A9469F760957095809590959B01DC
:100E8000AC01BD01CF010895A29FB001B39FC00185
:100E9000A39F700D811D1124911DB29F700D811DA6
:100EA0001124911D0895EE0FFF1F0590F491E02D80
:100EB00009940F931F93CF93DF938230910510F421
:100EC00082E090E0E091D602F091D70230E020E09D
:100ED000B0E0A0E0309799F42115310509F44AC03B
:100EE000281B390B24303105D8F58A819B81611587
:100EF000710589F1FB0193838283FE0111C040815A
:100F000051810281138148175907E0F048175907AA
:100F100099F4109761F012960C93129713961C9304
:100F20003296CF01DF91CF911F910F9108950093D9
:100F3000D6021093D702F4CF2115310551F0421794
:100F4000530738F0A901DB019A01BD01DF01F80167
:100F5000C1CFEF01F9CF9093D7028093D602CDCFC6
:100F6000FE01E20FF31F81939193225031093983DF
:100F70002883D7CF2091D4023091D502232B41F47E
:100F800020910601309107013093D5022093D402BD
:100F900020910401309105012115310541F42DB74F
:100FA0003EB74091080150910901241B350BE09197
:100FB000D402F091D502E217F307A0F42E1B3F0BE9
:100FC0002817390778F0AC014E5F5F4F24173507BB
:100FD00048F04E0F5F1F5093D5024093D402819387
:100FE00091939FCFF0E0E0E09CCFCF93DF93009709
:100FF000E9F0FC01329713821282A091D602B091DF
:10100000D702ED0130E020E01097A1F4208131817A
:10101000820F931F2091D4023091D50228173907EF
:1010200009F061C0F093D502E093D402DF91CF9133
:101030000895EA01CE17DF07E8F54A815B819E013A
:1010400041155105B1F7E901FB83EA8349915991B3
:10105000C40FD51FEC17FD0761F4808191810296C2
:10106000840F951FE90199838883828193819B83F3
:101070008A83F0E0E0E012968D919C91139700979F
:10108000B9F52D913C911197CD010296820F931FD6
:101090002091D4023091D5022817390739F63097BC
:1010A00051F51092D7021092D602B093D502A093B8
:1010B000D402BCCFD383C28340815181840F951F5A
:1010C000C817D90761F44E5F5F4F88819981480F37
:1010D000591F518340838A819B8193838283211589
:1010E000310509F0B0CFF093D702E093D6029ECF3E
:1010F000FD01DC01C0CF13821282D7CFB0E0A0E0A7
:10110000E4E8F8E00C94ED068C01009751F4CB0173
:101110000E9459078C01C801CDB7DEB7E0E10C94FD
:101120000907FC01E60FF71F9C0122503109E21765
:10113000F30708F49DC0D901CD91DC911197C61732
:10114000D70798F0C530D10530F3CE010497861744
:10115000970708F3C61BD70B2297C193D1936D93C2
:101160007C93CF010E94F507D6CF5B01AC1ABD0A74
:101170004C018C0E9D1EA091D602B091D702512C2D
:10118000412CF12CE12C109731F58091D4029091F3
:10119000D5028815990509F05CC04616570608F077
:1011A00058C08091040190910501009741F48DB7DA
:1011B0009EB74091080150910901841B950BE817D7
:1011C000F90708F055C0F093D502E093D402F90175
:1011D00071836083A0CF8D919C91119712966C9032
:1011E000129713967C901397A815B90559F56C01C1
:1011F00042E0C40ED11CCA14DB0420F1AC014A1930
:101200005B09DA011296159780F06282738251832E
:101210004083D9016D937C93E114F10471F0D701FF
:101220001396FC93EE93129776CF22968C0F9D1F08
:10123000F90191838083F301EFCFF093D702E0931C
:10124000D60269CF4816590608F42C017D01D30156
:101250009ACFCB010E9459077C01009749F0AE015B
:10126000B8010E943B09C8010E94F507870153CFCE
:1012700010E000E050CFFB01DC0102C001900D92B4
:1012800041505040D8F70895FB01DC0101900D92C8
:0A1290000020E1F70895F894FFCF65
:10129A00010000000000D8028000000000003F01A9
:1012AA005F008C008C01FD009B00EF000D0A0042DC
:1012BA0069656E76656E69646F20557375617269CA
:1012CA006F20696E677265736520756E206E756D25
:1012DA0065726F2064656C203120616C2035207145
:1012EA007565206372656120717565207469656E24
:1012FA006520656C2070726F6772616D61200049AC
:10130A006E677265736520656C206E756D65726FA8
:10131A003A200050726F636573616E646F20696E64
:10132A00666F726D6163696F6E2E2E2E2E2E657337
:10133A0070657265005573756172696F2073656CAB
:10134A00656363696F6E6F20656C206E756D65727B
:10135A006F3A20004C61206D617175696E6120736E
:10136A00656C656363696F6E6F20656C206E756D61
:10137A0065726F3A200047616E617374652061641B
:10138A006976696E6173746520656C206E756D652A
:10139A00726F005065726469737465206E6F2061A4
:1013AA00646976696E6173746520656C206E756D0B
:0813BA0065726F203A63000028
:00000001FF
