:100000000C9435000C945D000C945D000C945D0024
:100010000C945D000C945D000C945D000C945D00EC
:100020000C945D000C945D000C945D000C945D00DC
:100030000C945D000C945D000C945D000C945D00CC
:100040000C9459030C945D000C9427030C94010349
:100050000C945D000C945D000C945D000C945D00AC
:100060000C945D000C945D00820511241FBECFEF3F
:10007000D8E0DEBFCDBF22E0A6EBB1E001C01D920B
:10008000AA36B207E1F711E0A0E0B1E0EAE7FFE04D
:1000900002C005900D92A63BB107D9F710E0C5E369
:1000A000D0E004C02197FE010E94B507C433D107F8
:1000B000C9F70E94A3030C94BB070C940000AF92F5
:1000C000BF92CF92DF92EF92FF920F931F93CF9345
:1000D000DF936C017B018B01040F151FEB015E01A7
:1000E000AE18BF08C017D10759F06991D601ED913C
:1000F000FC910190F081E02DC6010995892B79F7DB
:10010000C501DF91CF911F910F91FF90EF90DF908C
:10011000CF90BF90AF900895FC01538D448D252F53
:1001200030E0842F90E0821B930B541710F0CF9691
:10013000089501970895FC01918D828D981761F0C3
:10014000A28DAE0FBF2FB11D5D968C91928D9F5FDA
:100150009F73928F90E008958FEF9FEF0895FC01B9
:10016000918D828D981731F0828DE80FF11D858D6C
:1001700090E008958FEF9FEF08952FB7F894809146
:10018000C9019091CA01A091CB01B091CC012FBFC0
:100190008093D5019093D601A093D701B093D80155
:1001A0008DEC91E00E94AF0097FF26C02FB7F89426
:1001B0008091C9019091CA01A091CB01B091CC016D
:1001C0002FBF4091D5015091D6016091D701709118
:1001D000D801841B950BA60BB70B4091D101509110
:1001E000D2016091D3017091D40184179507A607BD
:1001F000B707B0F28FEF9FEF08958F929F92AF9263
:10020000BF92CF92DF92EF92FF92CF93DF930E9443
:10021000BD00FC0197FD88C08D32910509F04CC0EE
:10022000812C912C80E8A82E8FE3B82EC12CD12CE4
:100230007601C0E0D0E0E130F10559F1ED32F10591
:1002400009F447C0EE32F10509F445C0CF01C0976B
:100250000A97F8F4AAE0B0E0A70196010E94D3063D
:100260006F01FF0FEE08FF08C60ED71EE81EF91E2D
:1002700080E3C81AD108E108F108CC2351F02DEC35
:100280003CEC4CEC5DE3C501B4010E9415064B014A
:100290005C018DEC91E00E949B000E94BD00FC017E
:1002A000C0970A9740F2EE32F105B9F4CC2319F267
:1002B000CD2FD11118C025C0C0970A9708F4B0CF30
:1002C000EE32F10509F4ACCF8DEC91E00E949B0079
:1002D0009ECFD1E0DECFC1E0DCCFE130F10509F403
:1002E000AACFDD2341F0F094E094D094C094C11CD7
:1002F000D11CE11CF11CC701B6010E94B605CC233C
:1003000041F0C701B6010E94B605A50194010E9403
:100310001506DF91CF91FF90EF90DF90CF90BF90C7
:10032000AF909F908F90089560E070E0CB01F1CF87
:10033000FC01918D228D892F90E0805C9F4F821B64
:1003400091098F73992708958DEC91E00E9498018F
:1003500021E0892B09F420E0822F089580E090E0CD
:10036000892B29F00E94A40181110C9400000895AA
:10037000FC01A48DA80FB92FB11DA35ABF4F2C911A
:10038000848D90E001968F739927848FA689B78911
:100390002C93A089B1898C91837080648C93938D08
:1003A000848D981306C00288F389E02D80818F7DAB
:1003B00080830895EF92FF920F931F93CF93DF9363
:1003C000EC0181E0888F9B8D8C8D98131AC0E88991
:1003D000F989808185FF15C09FB7F894EE89FF8960
:1003E0006083E889F98980818370806480839FBFFE
:1003F00081E090E0DF91CF911F910F91FF90EF90FE
:100400000895F62E0B8D10E00F5F1F4F0F7311270D
:10041000E02E8C8D8E110CC00FB607FCFACFE88948
:10042000F989808185FFF5CFCE010E94B801F1CF17
:10043000EB8DEC0FFD2FF11DE35AFF4FF0829FB7BC
:10044000F8940B8FEA89FB8980818062CFCFCF93AC
:10045000DF93EC01888D8823B9F0AA89BB89E889EC
:10046000F9898C9185FD03C0808186FD0DC00FB692
:1004700007FCF7CF8C9185FFF2CF808185FFEDCF10
:10048000CE010E94B801E9CFDF91CF9108953FB727
:10049000F8948091B7019091B801A091B901B09101
:1004A000BA0126B5A89B05C02F3F19F00196A11DE2
:1004B000B11D3FBFBA2FA92F982F8827BC01CD01AE
:1004C000620F711D811D911D42E0660F771F881F0D
:1004D000991F4A95D1F708958F929F92AF92BF923C
:1004E000CF92DF92EF92FF920E9447024B015C0194
:1004F00088EEC82E83E0D82EE12CF12C0E94470212
:10050000681979098A099B09683E7340810591053C
:10051000A8F321E0C21AD108E108F10888EE880E9C
:1005200083E0981EA11CB11CC114D104E104F104A4
:1005300029F7FF90EF90DF90CF90BF90AF909F9002
:100540008F900895FC0101900020E9F73197AF01E9
:10055000481B590BBC018DEC91E00C945F008F920D
:100560009F92AF92BF920F931F93CF93DF93CDB71C
:10057000DEB7A1970FB6F894DEBF0FBECDBF19A2AC
:10058000423008F44AE08E010F5D1F4F842E912CFB
:10059000B12CA12CA50194010E949307E62FB9016B
:1005A000CA01EA30F4F4E05DD801EE938D01232B0B
:1005B000242B252B79F790E080E0109719F0CD01DE
:1005C0000E94A202A1960FB6F894DEBF0FBECDBF67
:1005D000DF91CF911F910F91BF90AF909F908F901F
:1005E0000895E95CE1CFCF93DF930E94A202EC0172
:1005F00082E191E00E94A2028C0F9D1FDF91CF91BA
:1006000008951F920F920FB60F9211242F933F93CC
:100610004F935F936F937F938F939F93AF93BF930A
:10062000EF93FF938DEC91E00E94B801FF91EF9161
:10063000BF91AF919F918F917F916F915F914F91FA
:100640003F912F910F900FBE0F901F9018951F9202
:100650000F920FB60F9211242F938F939F93EF93C6
:10066000FF93E091DD01F091DE018081E091E301F3
:10067000F091E40182FD1BC090818091E6018F5FC3
:100680008F732091E701821741F0E091E601F0E0DD
:10069000E353FE4F958F8093E601FF91EF919F9179
:1006A0008F912F910F900FBE0F901F901895808102
:1006B000F4CF1F920F920FB60F9211242F933F93F6
:1006C0008F939F93AF93BF938091C9019091CA017B
:1006D000A091CB01B091CC013091B60123E0230F62
:1006E0002D3758F50196A11DB11D2093B6018093B9
:1006F000C9019093CA01A093CB01B093CC01809122
:10070000B7019091B801A091B901B091BA010196D9
:10071000A11DB11D8093B7019093B801A093B901B9
:10072000B093BA01BF91AF919F918F913F912F915B
:100730000F900FBE0F901F90189526E8230F02967A
:10074000A11DB11DD2CF789484B5826084BD84B5DB
:10075000816084BD85B5826085BD85B5816085BDBC
:1007600080916E00816080936E0010928100809174
:1007700081008260809381008091810081608093FC
:100780008100809180008160809380008091B10021
:1007900084608093B1008091B00081608093B0004C
:1007A00080917A00846080937A0080917A008260E0
:1007B00080937A0080917A00816080937A008091A2
:1007C0007A00806880937A001092C100E091DD0188
:1007D000F091DE0182E08083E091D901F091DA01AD
:1007E0001082E091DB01F091DC018FEC80831092AC
:1007F000E501E091E101F091E20186E08083E09182
:10080000DF01F091E001808180618083E091DF0170
:10081000F091E001808188608083E091DF01F091B8
:10082000E001808180688083E091DF01F091E00148
:1008300080818F7D8083C0E0D0E085E191E00E94DF
:10084000F3020E94FD006093C5017093C60180937E
:10085000C7019093C8010E946C028EE391E00E9450
:10086000F3020E94BD00FC0197FDB6C08D329105D8
:1008700021F0C0970A9708F0A8C0C12CD12C7601AE
:1008800010E0E130F105D9F0ED32F10509F4A2C034
:10089000CF01C0970A9798F4AAE0B0E0A7019601AB
:1008A0000E94D3066F01FF0FEE08FF08C60ED71E89
:1008B000E81EF91E80E3C81AD108E108F1088DECA2
:1008C00091E00E949B000E94BD00FC01C0970A9726
:1008D000C0F2E130F105A9F2112341F0F094E09467
:1008E000D094C094C11CD11CE11CF11CD092C40155
:1008F000C092C3010E946C0286E691E00E94F3025E
:100900000E94FD006B017C01C092BF01D092C0012A
:10091000E092C101F092C2010E946C026091C30199
:100920007091C401072E000C880B990B0E94B6052C
:100930002091C5013091C6014091C7015091C80175
:100940000E941506A70196010E94150620E030E0DE
:1009500040E05FE30E9415066093BB017093BC0109
:100960008093BD019093BE0186E891E00E94F3025E
:10097000C090BB01D090BC01E090BD01F090BE01E1
:10098000A7019601C701B6010E948E07882341F195
:1009900083EA91E00E94A20282E191E00E94A20219
:1009A0008FEA91E00E94F30283EB91E00E94F30250
:1009B0000E946C02209709F440CF0E94A401882372
:1009C00009F43BCF0E94000038CF8DEC91E00E94EB
:1009D0009B0047CF11E073CFC12CD12C760186CF7D
:1009E00046015701E894B7F82FEF3FEF4FE75FE775
:1009F000C501B4010E948E0781110DC02FEF3FEF9A
:100A00004FE75FE7C501B4010E94AF0518161CF45B
:100A100087EA91E0BFCF2FEF3FEF4FE75FE4C701D9
:100A2000B6010E94890718161CF48BEA91E0B2CF38
:100A30002FEF3FEF4FE75FECC701B6010E94AF0514
:100A400087FDF3CF20E030E0A901C701B6010E9485
:100A5000AF0587FF09C06DE28DEC91E00E94DA01DD
:100A6000F7FAF094F7F8F0942AE037ED43EA5BE305
:100A7000C701B6010E94EE064B015C010E945A07B5
:100A80006B017C010E94B4059B01AC01C501B4015E
:100A90000E94ED064B015C014AE0C701B6010E94CD
:100AA000AF026EE28DEC91E00E94DA0120E030E0CE
:100AB00040E251E4C501B4010E9415064B015C01FE
:100AC0000E945A076B01F12CE12C4AE0C701B601E4
:100AD0000E94AF02C701B6010E94B4059B01AC01A0
:100AE000C501B4010E94ED0620E030E040E251E48F
:100AF0000E9415060E945A0790E080E04AE00E949A
:100B0000AF024ACFEDECF1E01382128288EE93E05F
:100B1000A0E0B0E084839583A683B78384E091E06E
:100B20009183808385EC90E09587848784EC90E0C6
:100B30009787868780EC90E0918B808B81EC90E0AA
:100B4000938B828B82EC90E0958B848B86EC90E08B
:100B5000978B868B118E128E138E148E08950E94A1
:100B6000F10508F481E00895E89409C097FB3EF48C
:100B700090958095709561957F4F8F4F9F4F9923EA
:100B8000A9F0F92F96E9BB279395F6958795779568
:100B90006795B795F111F8CFFAF4BB0F11F460FF28
:100BA0001BC06F5F7F4F8F4F9F4F16C0882311F080
:100BB00096E911C0772321F09EE8872F762F05C094
:100BC000662371F096E8862F70E060E02AF09A952F
:100BD000660F771F881FDAF7880F9695879597F924
:100BE0000895990F0008550FAA0BE0E8FEEF1616BE
:100BF0001706E807F907C0F012161306E407F50711
:100C000098F0621B730B840B950B39F40A2661F084
:100C1000232B242B252B21F408950A2609F4A14027
:100C2000A6958FEF811D811D08950E9428060C94C2
:100C300099060E948B0638F00E94920620F09523B8
:100C400011F00C9482060C94880611240C94CD06A5
:100C50000E94AA0670F3959FC1F3950F50E0551FAF
:100C6000629FF001729FBB27F00DB11D639FAA2701
:100C7000F00DB11DAA1F649F6627B00DA11D661F50
:100C8000829F2227B00DA11D621F739FB00DA11D71
:100C9000621F839FA00D611D221F749F3327A00D2B
:100CA000611D231F849F600D211D822F762F6A2FC7
:100CB00011249F5750409AF0F1F088234AF0EE0F2C
:100CC000FF1FBB1F661F771F881F91505040A9F759
:100CD0009E3F510580F00C9482060C94CD065F3F38
:100CE000E4F3983ED4F3869577956795B795F79595
:100CF000E7959F5FC1F7FE2B880F911D969587950D
:100D000097F9089597F99F6780E870E060E008958B
:100D10009FEF80EC089500240A9416161706180613
:100D20000906089500240A941216130614060506EF
:100D30000895092E0394000C11F4882352F0BB0F80
:100D400040F4BF2B11F460FF04C06F5F7F4F8F4FE3
:100D50009F4F089557FD9058440F551F59F05F3F1E
:100D600071F04795880F97FB991F61F09F3F79F0CD
:100D700087950895121613061406551FF2CF46954F
:100D8000F1DF08C0161617061806991FF1CF8695D1
:100D90007105610508940895E894BB2766277727B5
:100DA000CB0197F908950E94DE06A59F900DB49F90
:100DB000900DA49F800D911D11240895A29FB00154
:100DC000B39FC001A39F700D811D1124911DB29F7F
:100DD000700D811D1124911D08955058BB27AA271D
:100DE0000E9405070C9499060E948B0638F00E9419
:100DF000920620F039F49F3F19F426F40C948806EB
:100E00000EF4E095E7FB0C948206E92F0E94AA06F7
:100E100058F3BA17620773078407950720F079F42F
:100E2000A6F50C94CC060EF4E0950B2EBA2FA02D4F
:100E30000B01B90190010C01CA01A0011124FF2787
:100E4000591B99F0593F50F4503E68F11A16F04082
:100E5000A22F232F342F4427585FF3CF4695379581
:100E60002795A795F0405395C9F77EF41F16BA0B46
:100E7000620B730B840BBAF09150A1F0FF0FBB1FF4
:100E8000661F771F881FC2F70EC0BA0F621F731F3D
:100E9000841F48F4879577956795B795F7959E3F9A
:100EA00008F0B0CF9395880F08F09927EE0F97952B
:100EB000879508950E94B20688F09F5798F0B92F41
:100EC0009927B751B0F0E1F0660F771F881F991F7F
:100ED0001AF0BA95C9F714C0B13091F00E94CC064F
:100EE000B1E008950C94CC06672F782F8827B85F5F
:100EF00039F0B93FCCF3869577956795B395D9F7D7
:100F00003EF490958095709561957F4F8F4F9F4FE0
:100F100008950E94F10508F48FEF08950E94F105ED
:100F2000880B990B0895A1E21A2EAA1BBB1BFD0189
:100F30000DC0AA1FBB1FEE1FFF1FA217B307E407B8
:100F4000F50720F0A21BB30BE40BF50B661F771F10
:100F5000881F991F1A9469F76095709580959095F0
:100F60009B01AC01BD01CF010895EE0FFF1F05905D
:0A0F7000F491E02D0994F894FFCFEE
:100F7A0000000000DA015F008C00270298019B0044
:100F8A00AF000D0A00496E677265736520656C20B3
:100F9A0074616D61C3B16F2064656C206C61646FAC
:100FAA002064656C20706F6C69676F6E6F00496EA4
:100FBA00677265736520656C206E756D65726F204A
:100FCA006465206C61646F732064656C20706F6C5B
:100FDA0069676F6E6F00496E677265736520656C2D
:100FEA002061706F74656D612064656C20706F6C30
:100FFA0069676F6E6F00456C204172656120646598
:10100A006C20706F6C69676F6E6F20657320646502
:10101A003A20006E616E00696E66006F7666002087
:06102A00636D322000009E
:00000001FF
