:100000000C94B2000C94DA000C94DA000C94DA0030
:100010000C94DA000C94DA000C94DA000C94DA00F8
:100020000C94DA000C94DA000C94DA000C94DA00E8
:100030000C94DA000C94DA000C94DA000C94DA00D8
:100040000C9439040C94DA000C9407040C94E1032A
:100050000C94DA000C94DA000C94DA000C94DA00B8
:100060000C94DA000C94DA0000407A10F35A00A0E5
:10007000724E18090010A5D4E80000E87648170071
:1000800000E40B54020000CA9A3B000000E1F505B1
:10009000000080969800000040420F000000A086FB
:1000A00001000000102700000000E803000000002D
:1000B0006400000000000A000000000001000000D1
:1000C00000002C76D888DC674F0823DFC1DFAE59EB
:1000D000E1B1B796E5E3E453C63AE651997696E87E
:1000E000E6C28426EB898C9B62ED407C6FFCEFBC02
:1000F0009C9F40F2BAA56FA5F490055A2AF75C932D
:100100006B6CF9676DC11BFCE0E40D47FEF520E662
:10011000B500D0ED902E0300943577050080841E45
:10012000080000204E0A000000C80C333333330FA0
:10013000986E12831141EF8D2114893BE65516CF3D
:10014000FEE6DB18D1844B381BF77C1D901DA4BB49
:10015000E424203284725E228100C9F124ECA1E5FE
:100160003D27020611241FBECFEFD8E0DEBFCDBF72
:1001700022E0AAE8B1E001C01D92A434B207E1F781
:1001800011E0A0E0B1E0E8E1F6E102C005900D92D7
:10019000AA38B107D9F710E0C2EBD0E004C021972C
:1001A000FE010E941209C13BD107C9F70E948304D6
:1001B0000C940A0B0C940000AF92BF92CF92DF9286
:1001C000EF92FF920F931F93CF93DF936C017B010C
:1001D0008B01040F151FEB015E01AE18BF08C0179D
:1001E000D10759F06991D601ED91FC910190F08110
:1001F000E02DC6010995892B79F7C501DF91CF91D3
:100200001F910F91FF90EF90DF90CF90BF90AF9034
:100210000895FC01538D448D252F30E0842F90E00C
:10022000821B930B541710F0CF96089501970895F1
:10023000FC01918D828D981761F0A28DAE0FBF2FBA
:10024000B11D5D968C91928D9F5F9F73928F90E010
:1002500008958FEF9FEF0895FC01918D828D98177F
:1002600031F0828DE80FF11D858D90E008958FEFBC
:100270009FEF08952FB7F89480919F019091A0016E
:10028000A091A101B091A2012FBF8093AB019093E7
:10029000AC01A093AD01B093AE0183EA91E00E945E
:1002A0002C0197FF26C02FB7F89480919F01909161
:1002B000A001A091A101B091A2012FBF4091AB017B
:1002C0005091AC016091AD017091AE01841B950B12
:1002D000A60BB70B4091A7015091A8016091A9010D
:1002E0007091AA0184179507A607B707B0F28FEFA0
:1002F0009FEF0895CF92DF92EF92FF92CF930E94EB
:100300003A01FC0197FD4EC08D32910521F0C09756
:100310000A9708F040C0C12CD12C7601C0E0E13032
:10032000F105D1F0ED32F105D9F1CF01C0970A976F
:1003300098F4AAE0B0E0A70196010E94C1086F01FD
:10034000FF0FEE08FF08C60ED71EE81EF91E80E359
:10035000C81AD108E108F10883EA91E00E94180167
:100360000E943A01FC01C0970A97C8F2E130F105FA
:10037000B1F2CC2341F0F094E094D094C094C11C2D
:10038000D11CE11CF11CC701B601CF91FF90EF9089
:10039000DF90CF90089583EA91E00E941801AFCFDB
:1003A000C1E0DACFC12CD12C7601EDCFFC01918DCB
:1003B000228D892F90E0805C9F4F821B91098F7363
:1003C0009927089583EA91E00E94D60121E0892BC4
:1003D00009F420E0822F089580E090E0892B29F035
:1003E0000E94E20181110C9400000895FC01A48D8B
:1003F000A80FB92FB11DA35ABF4F2C91848D90E047
:1004000001968F739927848FA689B7892C93A08929
:10041000B1898C91837080648C93938D848D9813B3
:1004200006C00288F389E02D80818F7D8083089546
:10043000EF92FF920F931F93CF93DF93EC0181E034
:10044000888F9B8D8C8D98131AC0E889F9898081DB
:1004500085FF15C09FB7F894EE89FF896083E8890E
:10046000F98980818370806480839FBF81E090E000
:10047000DF91CF911F910F91FF90EF900895F62E8D
:100480000B8D10E00F5F1F4F0F731127E02E8C8D27
:100490008E110CC00FB607FCFACFE889F98980816C
:1004A00085FFF5CFCE010E94F601F1CFEB8DEC0F69
:1004B000FD2FF11DE35AFF4FF0829FB7F8940B8F89
:1004C000EA89FB8980818062CFCFCF93DF93EC01F3
:1004D000888D8823B9F0AA89BB89E889F9898C912C
:1004E00085FD03C0808186FD0DC00FB607FCF7CFE8
:1004F0008C9185FFF2CF808185FFEDCFCE010E94E8
:10050000F601E9CFDF91CF9108953FB7F89480913C
:100510008B0190918C01A0918D01B0918E0126B537
:10052000A89B05C02F3F19F00196A11DB11D3FBF2B
:10053000BA2FA92F982F8827BC01CD01620F711DFA
:10054000811D911D42E0660F771F881F991F4A95F4
:10055000D1F708958F929F92AF92BF92CF92DF9280
:10056000EF92FF920E9485024B015C0188EEC82E3B
:1005700083E0D82EE12CF12C0E94850268197909BC
:100580008A099B09683E734081059105A8F321E023
:10059000C21AD108E108F10888EE880E83E0981E9F
:1005A000A11CB11CC114D104E104F10429F7FF908E
:1005B000EF90DF90CF90BF90AF909F908F90089575
:1005C000FC0101900020E9F73197AF01481B590B5E
:1005D000BC0183EA91E00C94DC00CF93DF930E948E
:1005E000E002EC0188E191E00E94E0028C0F9D1F87
:1005F000DF91CF9108950F931F93CF93DF93EC0179
:1006000088819981009759F02A813B812617370705
:1006100030F081E0DF91CF911F910F9108958B0110
:100620006F5F7F4F0E943D0A009759F0998388833E
:100630001B830A832C813D81232B59F7FC011082F7
:10064000E8CF80E0E7CFEF92FF920F931F93CF9315
:10065000DF936115710541F480E0DF91CF911F9127
:100660000F91FF90EF90089541155105B1F07B0176
:10067000EC010C811D81040F151FB8010E94FB02C3
:10068000882351F3288139818C819D81B701820FA4
:10069000931F0E94030B1D830C8381E0DECFCF9359
:1006A000DF93EC0188819981009711F00E94B409D1
:1006B000198218821D821C821B821A82DF91CF91BF
:1006C0000895CF92DF92EF92FF920F931F93CF93F3
:1006D000DF93CDB7DEB7A1970FB6F894DEBF0FBE9C
:1006E000CDBF7C01CB01BA01F701118210821382C8
:1006F0001282158214828E010F5F1F4F22E044E0A8
:100700000E942F066C01009771F0FC0101900020FF
:10071000E9F731978F01081B190BB801C7010E9437
:10072000FB02811112C0C7010E944F03A1960FB6B0
:10073000F894DEBF0FBECDBFDF91CF911F910F9117
:10074000FF90EF90DF90CF900895F7011583048319
:10075000B601808191810E94030BE8CFEF92FF9256
:100760000F931F93CF93DF938C017B01EB010990D3
:100770000020E9F72197C61BD70BBE010E94FB02A0
:10078000811109C0C801DF91CF911F910F91FF9096
:10079000EF900C944F03F801D583C483B701808197
:1007A0009181DF91CF911F910F91FF90EF900C9469
:1007B000030BFC0180819181009711F00C94B40926
:1007C00008951F920F920FB60F9211242F933F930B
:1007D0004F935F936F937F938F939F93AF93BF9349
:1007E000EF93FF9383EA91E00E94F601FF91EF916E
:1007F000BF91AF919F918F917F916F915F914F9139
:100800003F912F910F900FBE0F901F9018951F9240
:100810000F920FB60F9211242F938F939F93EF9304
:10082000FF93E091B301F091B4018081E091B901AF
:10083000F091BA0182FD1BC090818091BC018F5F55
:100840008F732091BD01821741F0E091BC01F0E06F
:10085000ED55FE4F958F8093BC01FF91EF919F91D5
:100860008F912F910F900FBE0F901F901895808140
:10087000F4CF1F920F920FB60F9211242F933F9334
:100880008F939F93AF93BF9380919F019091A0010D
:10089000A091A101B091A20130918A0123E0230F20
:1008A0002D3758F50196A11DB11D20938A01809323
:1008B0009F019093A001A093A101B093A201809108
:1008C0008B0190918C01A0918D01B0918E010196C8
:1008D000A11DB11D80938B0190938C01A0938D017C
:1008E000B0938E01BF91AF919F918F913F912F91C6
:1008F0000F900FBE0F901F90189526E8230F0296B9
:10090000A11DB11DD2CFCF93DF93CDB7DEB72C970A
:100910000FB6F894DEBF0FBECDBF789484B5826069
:1009200084BD84B5816084BD85B5826085BD85B593
:10093000816085BD80916E00816080936E00109211
:10094000810080918100826080938100809181008C
:10095000816080938100809180008160809380001D
:100960008091B10084608093B1008091B00081607B
:100970008093B00080917A00846080937A008091A7
:100980007A00826080937A0080917A0081608093FF
:100990007A0080917A00806880937A001092C1007A
:1009A000E091B301F091B40182E08083E091AF0166
:1009B000F091B0011082E091B101F091B2018FECA1
:1009C00080831092BB01E091B701F091B80186E0FD
:1009D0008083E091B501F091B601808180618083D0
:1009E000E091B501F091B601808188608083E0914B
:1009F000B501F091B601808180688083E091B501F6
:100A0000F091B60180818F7D808300E010E083EA61
:100A100091E00E94D601892B09F0E8C08BE191E0BA
:100A20000E94ED020E947A0170939E0160939D01E5
:100A30000E94AA028FE291E00E94ED020E947A01D8
:100A400070939C0160939B010E94AA0283E491E051
:100A50000E94ED020E947A0170939A0160939901BD
:100A60000E94AA0287E591E00E94ED020E947A01AD
:100A70006B0170939801609397010E94AA026091A4
:100A80009D0170919E018091990190919A01680F4A
:100A9000791F77FF02C06F5F7F4F75956795072EAF
:100AA000000C880B990B0E94860860939301709349
:100AB0009401809395019093960160919B017091B0
:100AC0009C016C0D7D1D77FF02C06F5F7F4F759598
:100AD0006795072E000C880B990B0E94860860937F
:100AE0008F017093900180939101909392018BE616
:100AF00091E00E94E0024091930150919401609135
:100B0000950170919601CE0101960E9461031886AD
:100B10001F821A8619861C861B866FE771E0CE013C
:100B200007960E94AE034D815E8169817A81CE0174
:100B300007960E942303811104C0CE0107960E94EC
:100B40004F034B855C856F81788583EA91E00E9435
:100B5000DC00CE0107960E94D903CE0101960E94C7
:100B6000D90340918F015091900160919101709152
:100B70009201CE0101960E94610318861F821A8697
:100B800019861C861B8662E871E0CE0107960E94DA
:100B9000AE034D815E8169817A81CE0107960E9404
:100BA0002303811104C0CE0107960E944F0343E046
:100BB00050E066E871E0CE0107960E9423038111A0
:100BC00004C0CE0107960E944F034B855C856F8160
:100BD000788583EA91E00E94DC00CE0107960E94AE
:100BE000D903CE0101960E94D90311CF0115110539
:100BF00009F40DCF0E94E201882309F408CF0E9476
:100C0000000005CFE3EAF1E01382128288EE93E060
:100C1000A0E0B0E084839583A683B7838AE091E067
:100C20009183808385EC90E09587848784EC90E0C5
:100C30009787868780EC90E0918B808B81EC90E0A9
:100C4000938B828B82EC90E0958B848B86EC90E08A
:100C5000978B868B118E128E138E148E0895EF92C1
:100C60000F931F93CF93DF93E80134E047FD34E106
:100C7000042E000C550B57FF03C0519541955109A7
:100C8000E32E022F242FAE010E944D06CE01DF91EC
:100C9000CF911F910F91EF900895A9E0B0E0E3E5A7
:100CA000F6E00C94D2086A01F22EB02E102FFBE36E
:100CB000AF2EA01608F41BE31F5F012F27E0AE0143
:100CC0004F5F5F4F0E94AC07BC018981982F9970DC
:100CD000913009F43FC09BE2E1FC04C09E2D91706D
:100CE000E0FC3AC05E2D5071E82FE87083FF46C0EB
:100CF00084E0911101C083E0EF2DE81B8F1508F00F
:100D0000E0E0D6018E2F20E2552351F1992329F0FE
:100D1000D6019C93C60101966C0196012D5F3F4F51
:100D2000E2FE24C08EE4D6018C9391E411969C934C
:100D3000119712968C93D9018E2F90E281111BC0CE
:100D4000E20FF32FF11D10828EEF9FEF2996ECE05A
:100D50000C94EE089DE2C6CF90E2C4CF2D93815053
:100D60008111FCCFCE0ED11CE0E0D0CF8EE6D601B3
:100D70008C9391E6DBCF9D938150E0CF482F447058
:100D800082FF3DC084E0911101C083E08F1510F413
:100D9000EF2DE81BD6018E2F20E2552309F1992370
:100DA00029F0D6019C93C60101966C0196012D5F36
:100DB0003F4FE2FE1BC089E4D6018C938EE411966E
:100DC0008C93119786E412968C93D9018E2F90E222
:100DD000882309F4B5CF9D938150FACF2D9381508C
:100DE0008111FCCFCE0ED11CE0E0D9CF89E6D6012F
:100DF0008C938EE611968C93119786E6E4CF9B0137
:100E000077FF02C030E020E0A1E0B0E0911102C025
:100E1000B0E0A0E0F9013196AE0FBF1F8B2C912CF2
:100E2000BB2009F461C05401EFEFAE1ABE0AAA0D4F
:100E3000BB1DFA161B0619F014F04F2D4A1B511159
:100E400088C0E3FC59C07601A42FB0E2A1114FC0C5
:100E5000C40ED11C992309F45BC040E0D601119661
:100E6000F60190836D01552309F448C0012F060F48
:100E70009A81582F507184FF03C0913309F40150B7
:100E800010160CF047C0093008F008E0EEE2FE2E24
:100E90005B01A01AB10885019194819491082F3FBC
:100EA000320729F4D601FC92F60131966F016217E0
:100EB000730794F1021713077CF5DB01A21BB30B38
:100EC000AA24A394B12CAC0EBD1EAA0DBB1D119675
:100ED0008C9121503109D601119628153905F4F06D
:100EE000F60180836D01DBCFB12CA12CA0CFF701DF
:100EF000B1937F01A150AACF9111B0CFD601942F09
:100F000050E302C05D9391509111FCCFC40ED11CEF
:100F100040E0ACCF01E0BACF80E3DBCF62177307CC
:100F200031F4963388F4953311F4552369F0F601C2
:100F30008083FD01842F90E2811108C0A40FB11DB0
:100F40001C9290E080E002CF81E3F1CF9193815039
:100F5000F3CF911183CF8ACF283008F027E03327D1
:100F6000DA01990F311D87FD9160009661057105C9
:100F700039F432602E5F3D9330E32A95E1F708950E
:100F80009F3F30F080387105610509F03C5F3C5FA0
:100F90003D93913008F08068911DDF93CF931F93AC
:100FA0000F93FF92EF92192F987F9695E92F9695C0
:100FB0009695E90FFF27EE53FF4F99273327EE242D
:100FC000FF24A701E70105900894079428F4360F41
:100FD000E71EF81E491F511D660F771F881F991FB6
:100FE0000694A1F70590079428F4E70EF81E491F10
:100FF000561FC11D770F881F991F661F0694A1F702
:101000000590079428F4F80E491F561FC71FD11DDD
:10101000880F991F661F771F0694A1F70590079404
:1010200020F4490F561FC71FD81F990F661F771F3F
:10103000881F0694A9F784911095177041F0D695F2
:10104000C79557954795F794E7941A95C1F7E8E641
:10105000F0E0689415901591359165919591059002
:101060007FE27395E118F10A430B560BC90BD009C7
:10107000C0F7E10CF11E431F561FC91FD01D7EF49F
:10108000703311F48A95E6CFE894015030F0080FE0
:101090000AF40027021708F4202F2395022F7A3331
:1010A00028F079E37D932A95E9F710C07D932A957E
:1010B00089F6069497956795379517951794E118D3
:1010C000F10A430B560BC90BD00998F023957E917A
:1010D00073957A3308F070E37C932013B8F77E9110
:1010E00070617D9330F0839571E37D9370E32A9571
:1010F000E1F71124EF90FF900F911F91CF91DF91B5
:10110000992787FD90950895E89409C097FB3EF4D0
:1011100090958095709561957F4F8F4F9F4F992344
:10112000A9F0F92F96E9BB279395F69587957795C2
:101130006795B795F111F8CFFAF4BB0F11F460FF82
:101140001BC06F5F7F4F8F4F9F4F16C0882311F0DA
:1011500096E911C0772321F09EE8872F762F05C0EE
:10116000662371F096E8862F70E060E02AF09A9589
:10117000660F771F881FDAF7880F9695879597F97E
:1011800008950E940309A59F900DB49F900DA49F00
:10119000800D911D112408952F923F924F925F92DE
:1011A0006F927F928F929F92AF92BF92CF92DF9277
:1011B000EF92FF920F931F93CF93DF93CDB7DEB7DC
:1011C000CA1BDB0B0FB6F894DEBF0FBECDBF099470
:1011D0002A88398848885F846E847D848C849B84C7
:1011E000AA84B984C884DF80EE80FD800C811B81D5
:1011F000AA81B981CE0FD11D0FB6F894DEBF0FBE04
:10120000CDBFED010895A29FB001B39FC001A39F80
:10121000700D811D1124911DB29F700D811D11242F
:10122000911D0895EE0FFF1F0590F491E02D099494
:101230000F931F93CF93DF938230910510F482E0D8
:1012400090E0E0914202F091430230E020E0B0E013
:10125000A0E0309799F42115310509F44AC0281B04
:10126000390B24303105D8F58A819B8161157105D0
:1012700089F1FB0193838283FE0111C0408151817A
:101280000281138148175907E0F04817590799F46C
:10129000109761F012960C93129713961C93329646
:1012A000CF01DF91CF911F910F91089500934202DA
:1012B00010934302F4CF2115310551F04217530723
:1012C00038F0A901DB019A01BD01DF01F801C1CFAE
:1012D000EF01F9CF9093430280934202CDCFFE01FC
:1012E000E20FF31F819391932250310939832883B0
:1012F000D7CF2091400230914102232B41F420911D
:101300000201309103013093410220934002209169
:101310000001309101012115310541F42DB73EB78F
:101320004091040150910501241B350BE0914002CE
:10133000F0914102E217F307A0F42E1B3F0B281790
:10134000390778F0AC014E5F5F4F2417350748F03E
:101350004E0F5F1F5093410240934002819391933F
:101360009FCFF0E0E0E09CCFCF93DF930097E9F0D0
:10137000FC01329713821282A0914202B091430283
:10138000ED0130E020E01097A1F420813181820F3F
:10139000931F20914002309141022817390709F02C
:1013A00061C0F0934102E0934002DF91CF91089534
:1013B000EA01CE17DF07E8F54A815B819E014115FE
:1013C0005105B1F7E901FB83EA8349915991C40FB3
:1013D000D51FEC17FD0761F4808191810296840F7F
:1013E000951FE90199838883828193819B838A83F6
:1013F000F0E0E0E012968D919C9113970097B9F57B
:101400002D913C911197CD010296820F931F20914F
:101410004002309141022817390739F6309751F5CB
:101420001092430210924202B0934102A0934002F4
:10143000BCCFD383C28340815181840F951FC817CD
:10144000D90761F44E5F5F4F88819981480F591F1A
:10145000518340838A819B81938382832115310547
:1014600009F0B0CFF0934302E09342029ECFFD011A
:10147000DC01C0CF13821282D7CFB0E0A0E0E3E45A
:10148000FAE00C94CE088C01009751F4CB010E9435
:1014900018098C01C801CDB7DEB7E0E10C94EA0869
:1014A000FC01E60FF71F9C0122503109E217F307F8
:1014B00008F49DC0D901CD91DC911197C617D707CB
:1014C00098F0C530D10530F3CE0104978617970701
:1014D00008F3C61BD70B2297C193D1936D937C93CE
:1014E000CF010E94B409D6CF5B01AC1ABD0A4C01F2
:1014F0008C0E9D1EA0914202B0914302512C412CB2
:10150000F12CE12C109731F580914002909141022D
:101510008815990509F05CC04616570608F058C0B2
:101520008091000190910101009741F48DB79EB721
:101530004091040150910501841B950BE817F907B0
:1015400008F055C0F0934102E0934002F901718325
:101550006083A0CF8D919C91119712966C901297F9
:1015600013967C901397A815B90559F56C0142E0C4
:10157000C40ED11CCA14DB0420F1AC014A195B096A
:10158000DA011296159780F062827382518340834C
:10159000D9016D937C93E114F10471F0D701139696
:1015A000FC93EE93129776CF22968C0F9D1FF90134
:1015B00091838083F301EFCFF0934302E0934202E3
:1015C00069CF4816590608F42C017D01D3019ACF42
:1015D000CB010E9418097C01009749F0AE01B801C7
:1015E0000E94FA0AC8010E94B409870153CF10E093
:1015F00000E050CFFB01DC0102C001900D92415090
:101600005040D8F70895FB01DC0101900D920020B5
:08161000E1F70895F894FFCF03
:10161800000044028000000000001802DC000901FC
:101628006502D60118012C010D0A00496E67726522
:10163800736520656C2050756E746F2058310049B1
:101648006E677265736520656C2050756E746F20C7
:10165800593100496E677265736520656C20507555
:101668006E746F20583200496E6772657365206525
:101678006C2050756E746F20593200456C2070755F
:101688006E746F206D6564696F2065733A20002859
:0A1698002000202C20002029200053
:00000001FF
