:100000000C9435000C945D000C945D000C945D0024
:100010000C945D000C945D000C945D000C945D00EC
:100020000C945D000C945D000C945D000C945D00DC
:100030000C945D000C945D000C945D000C945D00CC
:100040000C9489010C945D000C94F9010C94D3017B
:100050000C945D000C945D000C945D000C945D00AC
:100060000C945D000C945D00BE0211241FBECFEF06
:10007000D8E0DEBFCDBF11E0A0E0B1E0E6EEF5E0F4
:1000800002C005900D92AA35B107D9F722E0AAE582
:10009000B1E001C01D92A030B207E1F710E0C5E366
:1000A000D0E004C02197FE010E94EB02C433D107C7
:1000B000C9F70E942B020C94F1020C940000AF923D
:1000C000BF92CF92DF92EF92FF920F931F93CF9345
:1000D000DF936C017B018B01040F151FEB015E01A7
:1000E000AE18BF08C017D10759F06991D601ED913C
:1000F000FC910190F081E02DC6010995892B79F7DB
:10010000C501DF91CF911F910F91FF90EF90DF908C
:10011000CF90BF90AF900895FC01538D448D252F53
:1001200030E0842F90E0821B930B541710F0CF9691
:10013000089501970895FC01918D828D981761F0C3
:10014000A28DAE0FBF2FB11D5D968C91928D9F5FDA
:100150009F73928F90E008958FEF9FEF0895FC01B9
:10016000918D828D981731F0828DE80FF11D858D6C
:1001700090E008958FEF9FEF0895FC01918D228DFF
:10018000892F90E0805C9F4F821B91098F73992784
:10019000089583E691E00E94BD0021E0892B09F4D7
:1001A00020E0822F089580E090E0892B29F00E94C2
:1001B000C90081110C9400000895FC01A48DA80FC2
:1001C000B92FB11DA35ABF4F2C91848D90E0019699
:1001D0008F739927848FA689B7892C93A089B189B9
:1001E0008C91837080648C93938D848D981306C05A
:1001F0000288F389E02D80818F7D80830895EF92BE
:10020000FF920F931F93CF93DF93EC0181E0888FD0
:100210009B8D8C8D98131AC0E889F989808185FFA0
:1002200015C09FB7F894EE89FF896083E889F98942
:1002300080818370806480839FBF81E090E0DF9144
:10024000CF911F910F91FF90EF900895F62E0B8D97
:1002500010E00F5F1F4F0F731127E02E8C8D8E1152
:100260000CC00FB607FCFACFE889F989808185FFB9
:10027000F5CFCE010E94DD00F1CFEB8DEC0FFD2F0D
:10028000F11DE35AFF4FF0829FB7F8940B8FEA8974
:10029000FB8980818062CFCFCF93DF93EC01888D83
:1002A0008823B9F0AA89BB89E889F9898C9185FDF1
:1002B00003C0808186FD0DC00FB607FCF7CF8C917F
:1002C00085FFF2CF808185FFEDCFCE010E94DD005A
:1002D000E9CFDF91CF910895CF93DF93FC01019097
:1002E0000020E9F73197AF01481B590BBC0183E6A9
:1002F00091E00E945F00EC0142E050E062E171E0B9
:1003000083E691E00E945F008C0F9D1FDF91CF91EB
:1003100008951F920F920FB60F9211242F933F93BF
:100320008F939F93AF93BF9380915F0190916001F2
:10033000A0916101B091620130915E0123E0230F31
:100340002D3758F50196A11DB11D20935E018093B4
:100350005F0190936001A0936101B093620180916D
:100360005A0190915B01A0915C01B0915D010196F1
:10037000A11DB11D80935A0190935B01A0935C0174
:10038000B0935D01BF91AF919F918F913F912F915C
:100390000F900FBE0F901F90189526E8230F02961E
:1003A000A11DB11DD2CF1F920F920FB60F92112433
:1003B0002F933F934F935F936F937F938F939F936D
:1003C000AF93BF93EF93FF9383E691E00E94DD002C
:1003D000FF91EF91BF91AF919F918F917F916F911D
:1003E0005F914F913F912F910F900FBE0F901F90F3
:1003F00018951F920F920FB60F9211242F938F937F
:100400009F93EF93FF93E0917301F09174018081CA
:10041000E0917901F0917A0182FD1BC09081809179
:100420007C018F5F8F7320917D01821741F0E091F5
:100430007C01F0E0ED59FE4F958F80937C01FF9198
:10044000EF919F918F912F910F900FBE0F901F9062
:1004500018958081F4CF789484B5826084BD84B58A
:10046000816084BD85B5826085BD85B5816085BDAF
:1004700080916E00816080936E0010928100809167
:1004800081008260809381008091810081608093EF
:100490008100809180008160809380008091B10014
:1004A00084608093B1008091B00081608093B0003F
:1004B00080917A00846080937A0080917A008260D3
:1004C00080937A0080917A00816080937A00809195
:1004D0007A00806880937A001092C100E0917301E5
:1004E000F091740182E08083E0916F01F0917001DE
:1004F0001082E0917101F09172018FEC8083109273
:100500007B01E0917701F091780186E08083E091B2
:100510007501F0917601808180618083E0917501A1
:10052000F0917601808188608083E0917501F0917F
:100530007601808180688083E0917501F091760179
:1005400080818F7D8083C0E0D0E085E191E00E94D2
:100550006C0181E391E00E946C018CE391E00E94C8
:100560006C018BE491E00E946C01209771F30E9472
:10057000C900882351F30E940000E7CFE3E6F1E0D1
:100580001382128288EE93E0A0E0B0E0848395832A
:10059000A683B78384E091E09183808385EC90E02B
:1005A0009587848784EC90E09787868780EC90E03D
:1005B000918B808B81EC90E0938B828B82EC90E02E
:1005C000958B848B86EC90E0978B868B118E128EA8
:1005D000138E148E0895EE0FFF1F0590F491E02DF9
:0605E0000994F894FFCF1E
:1005E60000000000FF005F008C004C01BD009B0076
:1005F600AF000D0A004A6F7365204A61696D652078
:1006060041726D656E646172697A204C6F70657AAD
:10061600004C75697320616E67656C00566963747A
:100626006F7220436162726572610047617263692D
:0A06360061204D6F6E7469656C0061
:00000001FF
