:100000000C9436000C945E000C945E000C945E0020
:100010000C945E000C945E000C945E000C945E00E8
:100020000C945E000C945E000C945E000C945E00D8
:100030000C945E000C945E000C945E000C945E00C8
:100040000C9472020C945E000C9440020C941A0200
:100050000C945E000C945E000C945E000C945E00A8
:100060000C945E000C945E00BC02410411241FBE7F
:10007000CFEFD8E0DEBFCDBF22E0A4E5B1E001C004
:100080001D92A630B207E1F711E0A0E0B1E0E0E593
:10009000FDE002C005900D92A435B107D9F710E03C
:1000A000C5E3D0E004C02197FE010E94A304C4333D
:1000B000D107C9F70E9447030C949B060C940000DB
:1000C000AF92BF92CF92DF92EF92FF920F931F9366
:1000D000CF93DF936C017B018B01040F151FEB01A4
:1000E0005E01AE18BF08C017D10759F06991D6015B
:1000F000ED91FC910190F081E02DC6010995892BCD
:1001000079F7C501DF91CF911F910F91FF90EF908B
:10011000DF90CF90BF90AF900895FC01538D448D38
:10012000252F30E0842F90E0821B930B541710F0A2
:10013000CF96089501970895FC01918D828D9817AF
:1001400061F0A28DAE0FBF2FB11D5D968C91928D87
:100150009F5F9F73928F90E008958FEF9FEF0895B8
:10016000FC01918D828D981731F0828DE80FF11D81
:10017000858D90E008958FEF9FEF0895FC01918D9C
:10018000228D892F90E0805C9F4F821B91098F7395
:10019000992708958FE591E00E94BE0021E0892B08
:1001A00009F420E0822F089580E090E0892B29F067
:1001B0000E94CA0081110C9400000895FC01A48DD6
:1001C000A80FB92FB11DA35ABF4F2C91848D90E079
:1001D00001968F739927848FA689B7892C93A0895C
:1001E000B1898C91837080648C93938D848D9813E6
:1001F00006C00288F389E02D80818F7D8083089579
:10020000EF92FF920F931F93CF93DF93EC0181E066
:10021000888F9B8D8C8D98131AC0E889F98980810D
:1002200085FF15C09FB7F894EE89FF896083E88940
:10023000F98980818370806480839FBF81E090E032
:10024000DF91CF911F910F91FF90EF900895F62EBF
:100250000B8D10E00F5F1F4F0F731127E02E8C8D59
:100260008E110CC00FB607FCFACFE889F98980819E
:1002700085FFF5CFCE010E94DE00F1CFEB8DEC0FB4
:10028000FD2FF11DE35AFF4FF0829FB7F8940B8FBB
:10029000EA89FB8980818062CFCFCF93DF93EC0125
:1002A000888D8823B9F0AA89BB89E889F9898C915E
:1002B00085FD03C0808186FD0DC00FB607FCF7CF1A
:1002C0008C9185FFF2CF808185FFEDCFCE010E941A
:1002D000DE00E9CFDF91CF9108953FB7F894809188
:1002E000590190915A01A0915B01B0915C0126B532
:1002F000A89B05C02F3F19F00196A11DB11D3FBF5E
:10030000BA2FA92F982F8827BC01CD01620F711D2C
:10031000811D911D42E0660F771F881F991F4A9526
:10032000D1F70895FC0101900020E9F73197AF0162
:10033000481B590BBC018FE591E00C9460008F9233
:100340009F92AF92BF92CF92DF92EF92FF920F9364
:100350001F93CF93DF93CDB7DEB7A1970FB6F89475
:10036000DEBF0FBECDBF6B017C01F7FE41C06DE269
:100370008FE591E00E9400018C0122273327A9011B
:100380002C193D094E095F0919A2CE0181967C0105
:100390009AE0892E912CA12CB12CCA01B901A5019A
:1003A00094010E948104605DF70162937F01211531
:1003B00031054105510589F790E080E0309719F04B
:1003C000CF010E949201800F911FA1960FB6F89461
:1003D000DEBF0FBECDBFDF91CF911F910F91FF9078
:1003E000EF90DF90CF90BF90AF909F908F90089547
:1003F000AC019B0119A28E010F5D1F4F8AE0C82E30
:10040000D12CE12CF12CCA01B901A70196010E945F
:100410008104605DF80162938F012115310541056A
:10042000510589F790E080E0309779F2CF010E9482
:100430009201CBCF1F920F920FB60F9211242F93E0
:100440003F934F935F936F937F938F939F93AF935C
:10045000BF93EF93FF938FE591E00E94DE00FF9141
:10046000EF91BF91AF919F918F917F916F915F912C
:100470004F913F912F910F900FBE0F901F901895A5
:100480001F920F920FB60F9211242F938F939F9369
:10049000EF93FF93E0916F01F09170018081E09103
:1004A0007501F091760182FD1BC0908180917801E9
:1004B0008F5F8F7320917901821741F0E09178016D
:1004C000F0E0E15AFE4F958F80937801FF91EF9114
:1004D0009F918F912F910F900FBE0F901F901895A5
:1004E0008081F4CF1F920F920FB60F9211242F9399
:1004F0003F938F939F93AF93BF93809155019091BA
:100500005601A0915701B09158013091540123E058
:10051000230F2D3758F50196A11DB11D20935401CD
:100520008093550190935601A0935701B0935801C1
:100530008091590190915A01A0915B01B0915C01A9
:100540000196A11DB11D8093590190935A01A0936A
:100550005B01B0935C01BF91AF919F918F913F91EF
:100560002F910F900FBE0F901F90189526E8230F24
:100570000296A11DB11DD2CF1092620110926101AD
:1005800088EE93E0A0E0B0E0809363019093640173
:10059000A0936501B09366018EE091E090936001B5
:1005A00080935F0185EC90E090936C0180936B01E8
:1005B00084EC90E090936E0180936D0180EC90E06C
:1005C0009093700180936F0181EC90E090937201A1
:1005D0008093710182EC90E0909374018093730199
:1005E00086EC90E0909376018093750110927801EB
:1005F0001092790110927A0110927B011092FD0104
:100600001092FC011092FF011092FE011092010263
:100610001092000264E170E090E080E00E94CE055C
:10062000009701F19093FD018093FC0123E130E0FC
:100630003093FF012093FE012091000230910102CE
:10064000232B11F4FC01108283E190E090930102CE
:10065000809300026CE171E08091FC019091FD01BA
:100660000C9494068091FC019091FD01009711F08B
:100670000E9445051092FD011092FC0110920102AA
:10068000109200021092FF011092FE0108957894DA
:1006900084B5826084BD84B5816084BD85B5826087
:1006A00085BD85B5816085BD80916E008160809338
:1006B0006E001092810080918100826080938100A1
:1006C00080918100816080938100809180008160B1
:1006D000809380008091B10084608093B10080910C
:1006E000B00081608093B00080917A008460809334
:1006F0007A0080917A00826080937A0080917A00FB
:10070000816080937A0080917A00806880937A007B
:100710001092C100E0916F01F091700182E080833E
:10072000E0916B01F0916C011082E0916D01F0910C
:100730006E018FEC808310927701E0917301F0914C
:10074000740186E08083E0917101F09172018081F3
:1007500080618083E0917101F091720180818860F5
:100760008083E0917101F0917201808180688083C3
:10077000E0917101F091720180818F7D8083C0E0F2
:10078000D0E080915D0190915E010B9708F06EC002
:1007900020910001309101018091020190910301AB
:1007A000820F931F90930101809300013093030106
:1007B0002093020180E391E00E94920160915D012B
:1007C00070915E01072E000C880B990B0E949F010F
:1007D00089E491E00E94920160910201709103010D
:1007E000072E000C880B990B0E949F018EE491E06C
:1007F0000E9492016091000170910101072E000C8E
:10080000880B990B0E949F0181E591E00E94920163
:1008100080915D0190915E01019690935E018093BD
:100820005D010E946D014B015C0188EEC82E83E0E2
:10083000D82EE12CF12C0E946D01681979098A09E2
:100840009B09683E734081059105A8F321E0C21A17
:10085000D108E108F10888EE880E83E0981EA11CFB
:10086000B11CC114D104E104F10429F7209709F463
:1008700088CF0E94CA00882309F483CF0E94000019
:1008800080CF8091FC019091FD01009711F00C94B4
:10089000450508952F923F924F925F926F927F92FB
:1008A0008F929F92AF92BF92CF92DF92EF92FF9280
:1008B0000F931F93CF93DF93CDB7DEB7CA1BDB0B2C
:1008C0000FB6F894DEBF0FBECDBF09942A883988D1
:1008D00048885F846E847D848C849B84AA84B984D8
:1008E000C884DF80EE80FD800C811B81AA81B981E4
:1008F000CE0FD11D0FB6F894DEBF0FBECDBFED01F8
:100900000895A1E21A2EAA1BBB1BFD010DC0AA1F50
:10091000BB1FEE1FFF1FA217B307E407F50720F068
:10092000A21BB30BE40BF50B661F771F881F991FE3
:100930001A9469F760957095809590959B01AC012C
:10094000BD01CF010895EE0FFF1F0590F491E02D3A
:1009500009940F931F93CF93DF938230910510F486
:1009600082E090E0E0910402F091050230E020E0A6
:10097000B0E0A0E0309799F42115310509F44AC0A0
:10098000281B390B24303105D8F58A819B816115EC
:10099000710589F1FB0193838283FE0111C04081BF
:1009A00051810281138148175907E0F04817590710
:1009B00099F4109761F012960C93129713961C936A
:1009C0003296CF01DF91CF911F910F91089500933F
:1009D000040210930502F4CF2115310551F042179E
:1009E000530738F0A901DB019A01BD01DF01F801CD
:1009F000C1CFEF01F9CF9093050280930402CDCFD0
:100A0000FE01E20FF31F8193919322503109398344
:100A10002883D7CF2091020230910302232B41F487
:100A200020910601309107013093030220930202C6
:100A300020910401309105012115310541F42DB7B4
:100A40003EB74091080150910901241B350BE091FC
:100A50000202F0910302E217F307A0F42E1B3F0BF2
:100A60002817390778F0AC014E5F5F4F2417350720
:100A700048F04E0F5F1F5093030240930202819390
:100A800091939FCFF0E0E0E09CCFCF93DF9300976E
:100A9000E9F0FC01329713821282A0910402B09116
:100AA0000502ED0130E020E01097A1F420813181B2
:100AB000820F931F209102023091030228173907F9
:100AC00009F061C0F0930302E0930202DF91CF913D
:100AD0000895EA01CE17DF07E8F54A815B819E01A0
:100AE00041155105B1F7E901FB83EA834991599119
:100AF000C40FD51FEC17FD0761F480819181029628
:100B0000840F951FE90199838883828193819B8358
:100B10008A83F0E0E0E012968D919C911397009704
:100B2000B9F52D913C911197CD010296820F931F3B
:100B300020910202309103022817390739F63097C5
:100B400051F51092050210920402B0930302A09393
:100B50000202BCCFD383C28340815181840F951F91
:100B6000C817D90761F44E5F5F4F88819981480F9C
:100B7000591F518340838A819B81938382832115EE
:100B8000310509F0B0CFF0930502E09304029ECF47
:100B9000FD01DC01C0CF13821282D7CFB0E0A0E00C
:100BA000E4EDF5E00C944C048C01009751F4CB017A
:100BB0000E94A9048C01C801CDB7DEB7E0E10C9416
:100BC0006804FC01E60FF71F9C0122503109E2176F
:100BD000F30708F49DC0D901CD91DC911197C61798
:100BE000D70798F0C530D10530F3CE0104978617AA
:100BF000970708F3C61BD70B2297C193D1936D9328
:100C00007C93CF010E944505D6CF5B01AC1ABD0A8B
:100C10004C018C0E9D1EA0910402B0910502512C36
:100C2000412CF12CE12C109731F58091020290912A
:100C300003028815990509F05CC04616570608F0AE
:100C400058C08091040190910501009741F48DB73F
:100C50009EB74091080150910901841B950BE8173C
:100C6000F90708F055C0F0930302E0930202F9017E
:100C700071836083A0CF8D919C91119712966C9097
:100C8000129713967C901397A815B90559F56C0126
:100C900042E0C40ED11CCA14DB0420F1AC014A1995
:100CA0005B09DA011296159780F062827382518394
:100CB0004083D9016D937C93E114F10471F0D70165
:100CC0001396FC93EE93129776CF22968C0F9D1F6E
:100CD000F90191838083F301EFCFF0930502E09354
:100CE000040269CF4816590608F42C017D01D3018E
:100CF0009ACFCB010E94A9047C01009749F0AE0174
:100D0000B8010E948B06C8010E944505870153CF98
:100D100010E000E050CFFB01DC0102C001900D9219
:100D200041505040D8F70895FB01DC0101900D922D
:100D30000020E1F7089510E0C5E3D0E004C0FE0113
:100D40000E94A3042196C633D107C9F7F894FFCFB8
:100D50000100010000000602800000000000000108
:100D600060008D004D01BE009C00B000496E6772AE
:100D700065736520656C206E756D65726F3A200035
:100D800053656375656E6369612064652066696299
:100D90006F6E616363693A2000202E2D20002020B1
:040DA000000D0A0038
:00000001FF
