:100000000C9477000C949F000C949F000C949F001C
:100010000C949F000C949F000C949F000C949F00E4
:100020000C949F000C949F000C949F000C949F00D4
:100030000C949F000C949F000C949F000C949F00C4
:100040000C9463030C949F000C9431030C940B03E9
:100050000C949F000C949F000C949F000C949F00A4
:100060000C949F000C949F0007634236B79BD8A75F
:100070001A39685618AEBAAB558C1D3CB7CC5763CD
:10008000BD6DEDFD753EF6177231BF000000803F7B
:1000900008000000BE922449123EABAAAA2ABECD97
:1000A000CCCC4C3E00000080BEABAAAAAA3E000009
:1000B0000000BF000000803F000000000008417801
:1000C000D3BB4387D1133D190E3CC3BD4282AD2B38
:1000D0003E68EC8276BED98FE1A93E4C80EFFFBE30
:1000E00001C4FF7F3F0000000000EC0399051124CC
:1000F0001FBECFEFD8E0DEBFCDBF22E0A0E6B1E06B
:1001000001C01D92AA31B207E1F711E0A0E0B1E011
:10011000E6ECF7E102C005900D92A036B107D9F7E1
:1001200010E0C6E7D0E004C02197FE010E94DE097E
:10013000C537D107C9F70E9436040C94D60B0C942E
:100140000000AF92BF92CF92DF92EF92FF920F9397
:100150001F93CF93DF936C017B018B01040F151F5D
:10016000EB015E01AE18BF08C017D10759F06991C5
:10017000D601ED91FC910190F081E02DC601099529
:10018000892B79F7C501DF91CF911F910F91FF90D6
:10019000EF90DF90CF90BF90AF900895FC01538D0A
:1001A000448D252F30E0842F90E0821B930B541751
:1001B00010F0CF96089501970895FC01918D828DDE
:1001C000981761F0A28DAE0FBF2FB11D5D968C9177
:1001D000928D9F5F9F73928F90E008958FEF9FEFB6
:1001E0000895FC01918D828D981731F0828DE80F72
:1001F000F11D858D90E008958FEF9FEF08952FB743
:10020000F8948091690190916A01A0916B01B0917D
:100210006C012FBF8093750190937601A0937701B5
:10022000B09378018DE691E00E94F10097FF26C01F
:100230002FB7F8948091690190916A01A0916B01A8
:10024000B0916C012FBF4091750150917601609182
:10025000770170917801841B950BA60BB70B409129
:100260007101509172016091730170917401841752
:100270009507A607B707B0F28FEF9FEF0895CF92CB
:10028000DF92EF92FF92CF930E94FF00FC0197FD57
:100290004EC08D32910521F0C0970A9708F040C0FA
:1002A000C12CD12C7601C0E0E130F105D1F0ED3266
:1002B000F105D9F1CF01C0970A9798F4AAE0B0E010
:1002C000A70196010E94CE066F01FF0FEE08FF08FE
:1002D000C60ED71EE81EF91E80E3C81AD108E10831
:1002E000F1088DE691E00E94DD000E94FF00FC0114
:1002F000C0970A97C8F2E130F105B1F2CC2341F082
:10030000F094E094D094C094C11CD11CE11CF11C69
:10031000C701B601CF91FF90EF90DF90CF90089585
:100320008DE691E00E94DD00AFCFC1E0DACFC12CB5
:10033000D12C7601EDCFFC01918D228D892F90E09B
:10034000805C9F4F821B91098F73992708958DE6DA
:1003500091E00E949B0121E0892B09F420E0822F8B
:10036000089580E090E0892B29F00E94A701811177
:100370000C9400000895FC01A48DA80FB92FB11DA5
:10038000A35ABF4F2C91848D90E001968F739927CB
:10039000848FA689B7892C93A089B1898C918370A9
:1003A00080648C93938D848D981306C00288F389A2
:1003B000E02D80818F7D80830895EF92FF920F93CF
:1003C0001F93CF93DF93EC0181E0888F9B8D8C8D01
:1003D00098131AC0E889F989808185FF15C09FB7F5
:1003E000F894EE89FF896083E889F98980818370B8
:1003F000806480839FBF81E090E0DF91CF911F9167
:100400000F91FF90EF900895F62E0B8D10E00F5F87
:100410001F4F0F731127E02E8C8D8E110CC00FB65D
:1004200007FCFACFE889F989808185FFF5CFCE01F5
:100430000E94BB01F1CFEB8DEC0FFD2FF11DE35AB4
:10044000FF4FF0829FB7F8940B8FEA89FB89808178
:100450008062CFCFCF93DF93EC01888D8823B9F0F2
:10046000AA89BB89E889F9898C9185FD03C08081BF
:1004700086FD0DC00FB607FCF7CF8C9185FFF2CF3C
:10048000808185FFEDCFCE010E94BB01E9CFDF91D6
:10049000CF9108953FB7F8948091610190916201E6
:1004A000A0916301B091640126B5A89B05C02F3FC0
:1004B00019F00196A11DB11D3FBFBA2FA92F982F8A
:1004C0008827BC01CD01620F711D811D911D42E085
:1004D000660F771F881F991F4A95D1F708958F924D
:1004E0009F92AF92BF92CF92DF92EF92FF920E94C3
:1004F0004A024B015C0188EEC82E83E0D82EE12C25
:10050000F12C0E944A02681979098A099B09683E00
:10051000734081059105A8F321E0C21AD108E108D2
:10052000F10888EE880E83E0981EA11CB11CC1144E
:10053000D104E104F10429F7FF90EF90DF90CF9010
:10054000BF90AF909F908F900895FC010190002084
:10055000E9F73197AF01481B590BBC018DE691E0DB
:100560000C94A1008F929F92AF92BF920F931F9312
:10057000CF93DF93CDB7DEB7A1970FB6F894DEBF68
:100580000FBECDBF19A2423008F44AE08E010F5DC4
:100590001F4F842E912CB12CA12CA50194010E94F7
:1005A000BC09E62FB901CA01EA30F4F4E05DD801D4
:1005B000EE938D01232B242B252B79F790E080E0FF
:1005C000109719F0CD010E94A502A1960FB6F894DC
:1005D000DEBF0FBECDBFDF91CF911F910F91BF90B6
:1005E000AF909F908F900895E95CE1CFCF93DF9318
:1005F000FC0144815581608171818DE691E00E940A
:10060000A100EC0188E191E00E94A5028C0F9D1FE2
:10061000DF91CF9108951F920F920FB60F92112480
:100620002F933F934F935F936F937F938F939F93FA
:10063000AF93BF93EF93FF938DE691E00E94BB01D0
:10064000FF91EF91BF91AF919F918F917F916F91AA
:100650005F914F913F912F910F900FBE0F901F9080
:1006600018951F920F920FB60F9211242F938F930C
:100670009F93EF93FF93E0917D01F0917E01808144
:10068000E0918301F091840182FD1BC090818091F3
:1006900086018F5F8F7320918701821741F0E0916F
:1006A0008601F0E0E359FE4F958F80938601FF911C
:1006B000EF919F918F912F910F900FBE0F901F90F0
:1006C00018958081F4CF1F920F920FB60F921124CC
:1006D0002F933F938F939F93AF93BF938091690123
:1006E00090916A01A0916B01B0916C013091600111
:1006F00023E0230F2D3758F50196A11DB11D20933E
:1007000060018093690190936A01A0936B01B0939B
:100710006C018091610190916201A0916301B0919F
:1007200064010196A11DB11D809361019093620146
:10073000A0936301B0936401BF91AF919F918F919A
:100740003F912F910F900FBE0F901F90189526E8A4
:10075000230F0296A11DB11DD2CFEF92FF920F93EE
:100760001F93CF93DF93EC017B018A0188819981EC
:10077000009729F02A813B812417350788F4B801B6
:100780006F5F7F4F0E94090B009791F099838883D8
:100790001B830A832C813D81232B11F4FC011082E1
:1007A0001D830C83B701888199810E94CF0B0CC0F7
:1007B00088819981009711F00E94800A198218821D
:1007C0001D821C821B821A82CE01DF91CF911F9164
:1007D0000F91FF90EF900895EDE6F1E01382128201
:1007E00088EE93E0A0E0B0E084839583A683B7838E
:1007F0008AE091E09183808385EC90E095878487FF
:1008000084EC90E09787868780EC90E0918B808BDA
:1008100081EC90E0938B828B82EC90E0958B848BC3
:1008200086EC90E0978B868B118E128E138E148E31
:10083000E0E1F2E0118210821382128215821482AA
:1008400043E150E06BE171E0CF010E94AD03EAE0CB
:10085000F2E011821082138212821582148241E129
:1008600050E06FE271E0CF010C94AD03789484B551
:10087000826084BD84B5816084BD85B5826085BD9C
:1008800085B5816085BD80916E00816080936E002A
:10089000109281008091810082608093810080911C
:1008A00081008160809381008091800081608093CD
:1008B00080008091B10084608093B1008091B0008D
:1008C00081608093B00080917A00846080937A0088
:1008D00080917A00826080937A0080917A008160B2
:1008E00080937A0080917A00806880937A001092D9
:1008F000C100E0917D01F0917E0182E08083E09172
:100900007901F0917A011082E0917B01F0917C01F4
:100910008FEC808310928501E0918101F09182013A
:1009200086E08083E0917F01F09180018081806189
:100930008083E0917F01F0918001808188608083D5
:10094000E0917F01F0918001808180688083E09157
:100950007F01F091800180818F7D8083C0E0D0E0B5
:1009600080E192E00E94F6020E943F0170936801CC
:10097000609367010E946F028AE092E00E94F60293
:100980000E943F0170936601609365010E946F02AF
:1009900081E491E00E94A50288E191E00E94A50215
:1009A0006091650170916601072E000C880B990B10
:1009B0000E94B1056B017C01609167017091680133
:1009C000072E000C880B990B0E94B105A701960118
:1009D0000E94C0076B017C01AC019B010E941008C2
:1009E0008823A9F083E591E00E94A50288E191E0C7
:1009F0000E94A5020E946F02209709F4B1CF0E94C5
:100A0000A701882309F4ACCF0E940000A9CF4601BA
:100A10005701E894B7F82FEF3FEF4FE75FE7C501C5
:100A2000B4010E94100881110DC02FEF3FEF4FE776
:100A30005FE7C501B4010E94AA0518161CF487E5FA
:100A400091E0D2CF2FEF3FEF4FE75FE4C701B60150
:100A50000E94BB0718161CF48BE591E0C5CF2FEF61
:100A60003FEF4FE75FECC701B6010E94AA0587FD83
:100A7000F3CF20E030E0A901C701B6010E94AA052A
:100A800087FF09C06DE28DE691E00E94DD01F7FA73
:100A9000F094F7F8F0942AE037ED43EA5BE3C701FE
:100AA000B6010E9420074B015C010E948C076B017C
:100AB0007C010E94AF059B01AC01C501B4010E94FD
:100AC0001F074B015C014AE0C701B6010E94B20258
:100AD0006EE28DE691E00E94DD0120E030E040E230
:100AE00051E4C501B4010E9410064B015C010E9453
:100AF0008C076B01F12CE12C4AE0C701B6010E9482
:100B0000B202C701B6010E94AF059B01AC01C5014D
:100B1000B4010E941F0720E030E040E251E40E944F
:100B200010060E948C0790E080E04AE00E94B2022A
:100B30005DCF80910A0290910B02009711F00E9404
:100B4000800A8091100290911102009711F00C948C
:100B5000800A08950E94EC0508F481E00895E89465
:100B600009C097FB3EF490958095709561957F4FF5
:100B70008F4F9F4F9923A9F0F92F96E9BB279395A3
:100B8000F695879577956795B795F111F8CFFAF4B3
:100B9000BB0F11F460FF1BC06F5F7F4F8F4F9F4FE4
:100BA00016C0882311F096E911C0772321F09EE842
:100BB000872F762F05C0662371F096E8862F70E0A8
:100BC00060E02AF09A95660F771F881FDAF7880F82
:100BD0009695879597F90895990F0008550FAA0BD8
:100BE000E0E8FEEF16161706E807F907C0F0121640
:100BF0001306E407F50798F0621B730B840B950B43
:100C000039F40A2661F0232B242B252B21F4089597
:100C10000A2609F4A140A6958FEF811D811D089534
:100C20000E9423060C9494060E94860638F00E94C7
:100C30008D0620F0952311F00C947D060C9483060C
:100C400011240C94C8060E94A50670F3959FC1F369
:100C5000950F50E0551F629FF001729FBB27F00D6A
:100C6000B11D639FAA27F00DB11DAA1F649F6627BF
:100C7000B00DA11D661F829F2227B00DA11D621F0E
:100C8000739FB00DA11D621F839FA00D611D221FC8
:100C9000749F3327A00D611D231F849F600D211DAC
:100CA000822F762F6A2F11249F5750409AF0F1F02F
:100CB00088234AF0EE0FFF1FBB1F661F771F881F98
:100CC00091505040A9F79E3F510580F00C947D064D
:100CD0000C94C8065F3FE4F3983ED4F3869577956D
:100CE0006795B795F795E7959F5FC1F7FE2B880F3E
:100CF000911D9695879597F9089597F99F6780E8D4
:100D000070E060E008959FEF80EC089500240A945D
:100D10001616170618060906089500240A941216D6
:100D20001306140605060895092E0394000C11F409
:100D3000882352F0BB0F40F4BF2B11F460FF04C0B6
:100D40006F5F7F4F8F4F9F4F089557FD9058440F0F
:100D5000551F59F05F3F71F04795880F97FB991F1A
:100D600061F09F3F79F087950895121613061406D7
:100D7000551FF2CF4695F1DF08C016161706180664
:100D8000991FF1CF86957105610508940895E8943F
:100D9000BB2766277727CB0197F908950E94100794
:100DA000A59F900DB49F900DA49F800D911D1124BF
:100DB00008952F923F924F925F926F927F928F92FF
:100DC0009F92AF92BF92CF92DF92EF92FF920F93DA
:100DD0001F93CF93DF93CDB7DEB7CA1BDB0B0FB6E4
:100DE000F894DEBF0FBECDBF09942A8839884888A1
:100DF0005F846E847D848C849B84AA84B984C88437
:100E0000DF80EE80FD800C811B81AA81B981CE0F2D
:100E1000D11D0FB6F894DEBF0FBECDBFED01089512
:100E2000A29FB001B39FC001A39F700D811D11242B
:100E3000911DB29F700D811D1124911D0895505870
:100E4000BB27AA270E9437070C9494060E948606A7
:100E500038F00E948D0620F039F49F3F19F426F4F3
:100E60000C9483060EF4E095E7FB0C947D06E92FC5
:100E70000E94A50658F3BA176207730784079507FF
:100E800020F079F4A6F50C94C7060EF4E0950B2E2D
:100E9000BA2FA02D0B01B90190010C01CA01A001CC
:100EA0001124FF27591B99F0593F50F4503E68F127
:100EB0001A16F040A22F232F342F4427585FF3CF68
:100EC000469537952795A795F0405395C9F77EF439
:100ED0001F16BA0B620B730B840BBAF09150A1F082
:100EE000FF0FBB1F661F771F881FC2F70EC0BA0F08
:100EF000621F731F841F48F4879577956795B79590
:100F0000F7959E3F08F0B0CF9395880F08F099278A
:100F1000EE0F9795879508950E94AD0688F09F572C
:100F200098F0B92F9927B751B0F0E1F0660F771F0D
:100F3000881F991F1AF0BA95C9F714C0B13091F003
:100F40000E94C706B1E008950C94C706672F782F5A
:100F50008827B85F39F0B93FCCF3869577956795C8
:100F6000B395D9F73EF490958095709561957F4F34
:100F70008F4F9F4F08950E94EC0508F48FEF08955E
:100F8000FA01EE0FFF1F309621053105A1F1611521
:100F9000710561F48038BFE39B0749F1689490388C
:100FA000810561F08038BFEF9B0741F099234AF536
:100FB000FF3FE1053105210519F1E8940894E79513
:100FC000D901AA2329F4AB2FBE2FF85FD0F310C0AC
:100FD000FF5F70F4A695E0F7F73950F019F0FF3A8B
:100FE00038F49F779F930DD00F9007FC9058089589
:100FF00046F00C94830660E070E080E89FE308957B
:101000004FE79F775F934F933F932F930E94C008C2
:101010002F913F914F915F910E9410060C941D08F3
:101020000E94EC05880B990B089529F416F00C9496
:101030007D060C94C7060C9483060E94AD06A8F3A7
:101040009638A0F707F80F92E8942BE33AEA48EBBA
:101050005FE70E9426060F920F920F924DB75EB780
:101060000F920E940809E8E6F0E00E944F084F91B5
:101070005F91EF91FF91E595EE1FFF1F49F0FE573D
:10108000E0684427EE0F441FFA95E1F74195550BB0
:101090000E9482080F9007FE0C9476080895DF9353
:1010A000CF931F930F93FF92EF92DF927B018C01FE
:1010B000689406C0DA2EEF010E942306FE01E89430
:1010C000A5912591359145915591A6F3EF010E9487
:1010D0003707FE019701A801DA9469F7DF90EF90D6
:1010E000FF900F911F91CF91DF9108959B01AC016B
:1010F00060E070E080E89FE30C943C090C947D066E
:101100000C94AE090E94AD06D8F39923C9F3940F4D
:10111000511DA3F39150504094F059F0882332F0C0
:10112000660F771F881F91505040C1F79E3F5105B1
:101130002CF7880F911D9695879597F908955F3F35
:10114000ACF0983E9CF0BB27869577956795B79550
:1011500008F4B1609395C1F7BB0F58F711F460FF25
:10116000E8CF6F5F7F4F8F4F9F4FE3CF0C94C80640
:1011700016F00C94AE090C94830668940C947D06CA
:101180000E94AD06A8F39923C1F3AEF3DF93CF938A
:101190001F930F93FF92C92FDD2788232AF02197F1
:1011A000660F771F881FDAF720E030E040E85FEB3A
:1011B0009FE3883920F0803E38F021968F770E9497
:1011C0002007E0E9F0E004C00E942007EDEBF0E02A
:1011D0000E944F088B01BE01EC01FB2E6F57710975
:1011E0007595771F880B990B0E94B10528E132E7AE
:1011F00041E35FE30E942306AF2D9801AE01FF900B
:101200000F911F91CF91DF910E9437070C949406A4
:10121000FA01DC01AA0FBB1F9B01AC01BF5728F4E8
:10122000222733274427507820C0B75190F4AB2FA2
:101230000024469537952795011CA395D2F30020ED
:1012400071F0220F331F441FB395DAF30ED00C94C4
:101250001F0761307105A0E88A07B94630F49B0189
:10126000AC016627772788279078309621F0208375
:1012700031834283538308950E9450090C9494064D
:101280000E948D0658F00E94860640F029F45F3FC8
:1012900029F00C947D0651110C94C8060C94830619
:1012A0000E94A50668F39923B1F3552391F3951B8A
:1012B000550BBB27AA2762177307840738F09F5F77
:1012C0005F4F220F331F441FAA1FA9F335D00E2EE4
:1012D0003AF0E0E832D091505040E695001CCAF751
:1012E0002BD0FE2F29D0660F771F881FBB1F261714
:1012F00037074807AB07B0E809F0BB0B802DBF01EB
:10130000FF2793585F4F3AF09E3F510578F00C94B9
:101310007D060C94C8065F3FE4F3983ED4F38695AF
:1013200077956795B795F7959F5FC9F7880F911DDA
:101330009695879597F90895E1E0660F771F881FC6
:10134000BB1F621773078407BA0720F0621B730B79
:10135000840BBA0BEE1F88F7E09508959F3F31F09C
:10136000915020F4879577956795B795880F911DD3
:101370009695879597F90895A1E21A2EAA1BBB1B93
:10138000FD010DC0AA1FBB1FEE1FFF1FA217B30751
:10139000E407F50720F0A21BB30BE40BF50B661F67
:1013A000771F881F991F1A9469F76095709580952B
:1013B00090959B01AC01BD01CF010895EE0FFF1F79
:1013C0000590F491E02D09940F931F93CF93DF9331
:1013D0008230910510F482E090E0E0911802F091E3
:1013E000190230E020E0B0E0A0E0309799F4211538
:1013F000310509F44AC0281B390B24303105D8F5D2
:101400008A819B816115710589F1FB019383828338
:10141000FE0111C040815181028113814817590793
:10142000E0F04817590799F4109761F012960C9361
:10143000129713961C933296CF01DF91CF911F9193
:101440000F9108950093180210931902F4CF2115FB
:10145000310551F04217530738F0A901DB019A0119
:10146000BD01DF01F801C1CFEF01F9CF909319025F
:1014700080931802CDCFFE01E20FF31F8193919369
:101480002250310939832883D7CF20911602309119
:101490001702232B41F42091020130910301309374
:1014A00017022093160220910001309101012115AD
:1014B000310541F42DB73EB740910401509105012B
:1014C000241B350BE0911602F0911702E217F30787
:1014D000A0F42E1B3F0B2817390778F0AC014E5FA4
:1014E0005F4F2417350748F04E0F5F1F50931702C8
:1014F00040931602819391939FCFF0E0E0E09CCF60
:10150000CF93DF930097E9F0FC01329713821282A8
:10151000A0911802B0911902ED0130E020E010977F
:10152000A1F420813181820F931F20911602309106
:1015300017022817390709F061C0F0931702E093EA
:101540001602DF91CF910895EA01CE17DF07E8F583
:101550004A815B819E0141155105B1F7E901FB8389
:10156000EA8349915991C40FD51FEC17FD0761F427
:10157000808191810296840F951FE9019983888368
:10158000828193819B838A83F0E0E0E012968D91C3
:101590009C9113970097B9F52D913C911197CD012E
:1015A0000296820F931F209116023091170228177E
:1015B000390739F6309751F5109219021092180236
:1015C000B0931702A0931602BCCFD383C28340818D
:1015D0005181840F951FC817D90761F44E5F5F4F83
:1015E00088819981480F591F518340838A819B814B
:1015F000938382832115310509F0B0CFF09319024E
:10160000E09318029ECFFD01DC01C0CF138212824D
:10161000D7CFB0E0A0E0EFE0FBE00C94DB068C015C
:10162000009751F4CB010E94E4098C01C801CDB7A9
:10163000DEB7E0E10C94F706FC01E60FF71F9C0112
:1016400022503109E217F30708F49DC0D901CD916A
:10165000DC911197C617D70798F0C530D10530F344
:10166000CE0104978617970708F3C61BD70B22975E
:10167000C193D1936D937C93CF010E94800AD6CF02
:101680005B01AC1ABD0A4C018C0E9D1EA091180284
:10169000B0911902512C412CF12CE12C109731F50D
:1016A00080911602909117028815990509F05CC087
:1016B0004616570608F058C080910001909101012C
:1016C000009741F48DB79EB74091040150910501F8
:1016D000841B950BE817F90708F055C0F093170223
:1016E000E0931602F90171836083A0CF8D919C91E4
:1016F000119712966C90129713967C901397A815D9
:10170000B90559F56C0142E0C40ED11CCA14DB04C2
:1017100020F1AC014A195B09DA011296159780F0A5
:101720006282738251834083D9016D937C93E1146B
:10173000F10471F0D7011396FC93EE93129776CFD4
:1017400022968C0F9D1FF90191838083F301EFCFC7
:10175000F0931902E093180269CF4816590608F46D
:101760002C017D01D3019ACFCB010E94E4097C01B9
:10177000009749F0AE01B8010E94C60BC8010E9453
:10178000800A870153CF10E000E050CFFB01DC015D
:1017900002C001900D9241505040D8F70895FB01CE
:1017A000DC0101900D920020E1F7089510E0C6E7FA
:1017B000D0E004C0FE010E94DE092196C737D107A0
:0617C000C9F7F894FFCF09
:1017C60000001A02800000000000DD01A100CE002A
:1017D6002A029B01DD00F1000D0A00496E67726561
:1017E600736520656C206E756D65726F3A200069B1
:1017F6006E67726573617220706F74656E6369617E
:1018060000456C20726573756C7461646F20657336
:101816003A20006E616E00696E66006F76660000A3
:00000001FF
