:100000000C94B3000C94DB000C94DB000C94DB002C
:100010000C94DB000C94DB000C94DB000C94DB00F4
:100020000C94DB000C94DB000C94DB000C94DB00E4
:100030000C94DB000C94DB000C94DB000C94DB00D4
:100040000C9423030C94DB000C94F1020C94CB026F
:100050000C94DB000C94DB000C94DB000C94DB00B4
:100060000C94DB000C94DB0000407A10F35A00A0E3
:10007000724E18090010A5D4E80000E87648170071
:1000800000E40B54020000CA9A3B000000E1F505B1
:10009000000080969800000040420F000000A086FB
:1000A00001000000102700000000E803000000002D
:1000B0006400000000000A000000000001000000D1
:1000C00000002C76D888DC674F0823DFC1DFAE59EB
:1000D000E1B1B796E5E3E453C63AE651997696E87E
:1000E000E6C28426EB898C9B62ED407C6FFCEFBC02
:1000F0009C9F40F2BAA56FA5F490055A2AF75C932D
:100100006B6CF9676DC11BFCE0E40D47FEF520E662
:10011000B500D0ED902E0300943577050080841E45
:10012000080000204E0A000000C80C333333330FA0
:10013000986E12831141EF8D2114893BE65516CF3D
:10014000FEE6DB18D1844B381BF77C1D901DA4BB49
:10015000E424203284725E228100C9F124ECA1E5FE
:100160003D276D03670511241FBECFEFD8E0DEBF2A
:10017000CDBF22E0A2E6B1E001C01D92A032B207DD
:10018000E1F711E0A0E0B1E0EEEFF4E102C005908C
:100190000D92A236B107D9F710E0C2EBD0E004C04F
:1001A0002197FE010E947A08C13BD107C9F70E943E
:1001B000B7030C94720A0C940000AF92BF92CF92D6
:1001C000DF92EF92FF920F931F93CF93DF936C0117
:1001D0007B018B01040F151FEB015E01AE18BF08F8
:1001E000C017D10759F06991D601ED91FC910190AA
:1001F000F081E02DC6010995892B79F7C501DF91C2
:10020000CF911F910F91FF90EF90DF90CF90BF9013
:10021000AF900895CF93DF93FC01448155816081B5
:10022000718183E791E00E94DD00EC0142E050E043
:1002300068E171E083E791E00E94DD008C0F9D1F73
:10024000DF91CF910895FC01538D448D252F30E02F
:10025000842F90E0821B930B541710F0CF960895D3
:1002600001970895FC01918D828D981761F0A28D00
:10027000AE0FBF2FB11D5D968C91928D9F5F9F73C6
:10028000928F90E008958FEF9FEF0895FC01918D7C
:10029000828D981731F0828DE80FF11D858D90E0E9
:1002A00008958FEF9FEF08952FB7F89480916F0115
:1002B00090917001A0917101B09172012FBF809354
:1002C0007B0190937C01A0937D01B0937E0183E735
:1002D00091E00E94460197FF26C02FB7F8948091C5
:1002E0006F0190917001A0917101B09172012FBFC7
:1002F00040917B0150917C0160917D0170917E0164
:10030000841B950BA60BB70B409177015091780198
:100310006091790170917A0184179507A607B70754
:10032000B0F28FEF9FEF0895FC01918D228D892F00
:1003300090E0805C9F4F821B91098F7399270895ED
:1003400083E791E00E94940121E0892B09F420E0E9
:10035000822F089580E090E0892B29F00E94A0016F
:1003600081110C9400000895FC01A48DA80FB92FF1
:10037000B11DA35ABF4F2C91848D90E001968F73CD
:100380009927848FA689B7892C93A089B1898C91EC
:10039000837080648C93938D848D981306C002883B
:1003A000F389E02D80818F7D80830895EF92FF9205
:1003B0000F931F93CF93DF93EC0181E0888F9B8D88
:1003C0008C8D98131AC0E889F989808185FF15C042
:1003D0009FB7F894EE89FF896083E889F989808165
:1003E0008370806480839FBF81E090E0DF91CF9134
:1003F0001F910F91FF90EF900895F62E0B8D10E056
:100400000F5F1F4F0F731127E02E8C8D8E110CC0C4
:100410000FB607FCFACFE889F989808185FFF5CF0F
:10042000CE010E94B401F1CFEB8DEC0FFD2FF11D39
:10043000E35AFF4FF0829FB7F8940B8FEA89FB894C
:1004400080818062CFCFCF93DF93EC01888D8823AA
:10045000B9F0AA89BB89E889F9898C9185FD03C027
:10046000808186FD0DC00FB607FCF7CF8C9185FF0C
:10047000F2CF808185FFEDCFCE010E94B401E9CF9C
:10048000DF91CF9108953FB7F894809163019091E7
:100490006401A0916501B091660126B5A89B05C0D5
:1004A0002F3F19F00196A11DB11D3FBFBA2FA92FF3
:1004B000982F8827BC01CD01620F711D811D911DF0
:1004C00042E0660F771F881F991F4A95D1F708955C
:1004D0000F931F93CF93DF93EC018881998100974D
:1004E00059F02A813B812617370730F081E0DF91F0
:1004F000CF911F910F9108958B016F5F7F4F0E94E5
:10050000A509009759F0998388831B830A832C815E
:100510003D81232B59F7FC011082E8CF80E0E7CF23
:10052000CF93DF93EC0188819981009711F00E94AD
:100530001C09198218821D821C821B821A82DF917B
:10054000CF910895EF92FF920F931F93CF93DF9374
:10055000EC017B018A01BA010E94680281110BC083
:10056000CE010E949002CE01DF91CF911F910F9199
:10057000FF90EF9008951D830C83B70188819981C6
:100580000E946B0AF0CFFC0180819181009711F0ED
:100590000C941C0908951F920F920FB60F9211240C
:1005A0002F933F934F935F936F937F938F939F937B
:1005B000AF93BF93EF93FF9383E791E00E94B40161
:1005C000FF91EF91BF91AF919F918F917F916F912B
:1005D0005F914F913F912F910F900FBE0F901F9001
:1005E00018951F920F920FB60F9211242F938F938D
:1005F0009F93EF93FF93E0918301F09184018081B9
:10060000E0918901F0918A0182FD1BC09081809167
:100610008C018F5F8F7320918D01821741F0E091E3
:100620008C01F0E0ED58FE4F958F80938C01FF9187
:10063000EF919F918F912F910F900FBE0F901F9070
:1006400018958081F4CF1F920F920FB60F9211244C
:100650002F933F938F939F93AF93BF9380916F019D
:1006600090917001A0917101B0917201309162017D
:1006700023E0230F2D3758F50196A11DB11D2093BE
:10068000620180936F0190937001A0937101B09308
:1006900072018091630190916401A0916501B09114
:1006A00066010196A11DB11D8093630190936401C1
:1006B000A0936501B0936601BF91AF919F918F9117
:1006C0003F912F910F900FBE0F901F90189526E825
:1006D000230F0296A11DB11DD2CFE3E7F1E01382F3
:1006E000128288EE93E0A0E0B0E084839583A68335
:1006F000B7838AE091E09183808385EC90E09587D1
:10070000848784EC90E09787868780EC90E0918BDB
:10071000808B81EC90E0938B828B82EC90E0958BC8
:10072000848B86EC90E0978B868B118E128E138EC5
:10073000148EE6E1F2E01182108213821282158299
:10074000148243E150E06BE171E0CF010E94A2020C
:10075000E0E1F2E01182108213821282158214828B
:100760004CE050E06FE271E0CF010C94A202CF9315
:10077000DF93CDB7DEB7A7970FB6F894DEBF0FBEF5
:10078000CDBF789484B5826084BD84B5816084BD1A
:1007900085B5826085BD85B5816085BD80916E001F
:1007A000816080936E001092810080918100826050
:1007B000809381008091810081608093810080918D
:1007C00080008160809380008091B100846080937C
:1007D000B1008091B00081608093B00080917A0078
:1007E000846080937A0080917A00826080937A009E
:1007F00080917A00816080937A0080917A0080688D
:1008000080937A001092C100E0918301F0918401FD
:1008100082E08083E0917F01F09180011082E0917D
:100820008101F09182018FEC808310928B01E09125
:100830008701F091880186E08083E0918501F09145
:100840008601808180618083E0918501F09186013D
:10085000808188608083E0918501F09186018081AC
:1008600080688083E0918501F091860180818F7D91
:10087000808395E0E92EF12C20E0C22E20E0D22EDC
:1008800080E192E00E940A0183E791E00E949401D6
:10089000892BD1F310926E0110926D0180916D0140
:1008A00090916E0105970CF09DC086E192E00E9448
:1008B0000A010E945401FC0197FD90C08D32910500
:1008C00021F0C0970A9708F082C0812C912C540126
:1008D00010E0E130F105D9F0ED32F10509F47CC00A
:1008E000CF01C0970A9798F4AAE0B0E0A50194015F
:1008F0000E9401084F01FF0FAA08BB08860E971E31
:10090000A81EB91E20E3821A9108A108B10883E746
:1009100091E00E9432010E945401FC01C0970A97A5
:10092000C0F2E130F105A9F2112341F0B094A09496
:1009300090948094811C911CA11CB11C80916B012E
:1009400090916C01880D991D90936C0180936B01BF
:10095000B7010E945208072E000C880B990B0E94C9
:10096000C607609367017093680180936901909353
:100970006A010E9443022B013C0189E1882E912CDF
:10098000A12CB12C0E9443026419750986099709AC
:10099000683E734081059105A8F381E0881A9108AB
:1009A000A108B10828EE420E23E0521E611C711C02
:1009B00081149104A104B10429F780916D019091F3
:1009C0006E01019690936E0180936D0167CF83E76E
:1009D00091E00E9432016DCF11E099CF812C912CD2
:1009E0005401ACCF609167017091680180916901F9
:1009F00090916A011BA21AA21DA21CA21FA21EA2F4
:100A00008E010F5F1F4F22E044E00E946F050097A8
:100A100009F453C0FC0101900020E9F73197AF01C0
:100A2000481B590BBC01CE0182960E94A2021A8279
:100A300019821C821B821E821D8245E250E06CE3FB
:100A400071E0CE0101960E94A2028AA09BA08114AF
:100A50009104C1F1AEA0BFA0A114B104B1F08D8189
:100A60009E81A80EB91EB501CE0101960E946802B2
:100A7000882341F129813A818D819E81B401820FC1
:100A8000931F0E946B0ABE82AD82CE0101960E9426
:100A90000A01CE0101960E94C302CE0182960E94F5
:100AA000C302C114D10409F4EBCE0E94A001882333
:100AB00009F4E6CE0E940000E3CECE0182960E94A9
:100AC0009002B5CFCE0101960E949002DECF80E168
:100AD00092E00E94C30286E192E00C94C302EF927E
:100AE0000F931F93CF93DF93E80134E047FD34E188
:100AF000042E000C550B57FF03C051954195510929
:100B0000E32E022F242FAE010E948D05CE01DF912E
:100B1000CF911F910F91EF900895A9E0B0E0E3E924
:100B2000F5E00C9412086A01F22EB02E102FFBE3B0
:100B3000AF2EA01608F41BE31F5F012F27E0AE01C4
:100B40004F5F5F4F0E94EC06BC018981982F99701E
:100B5000913009F43FC09BE2E1FC04C09E2D9170EE
:100B6000E0FC3AC05E2D5071E82FE87083FF46C06C
:100B700084E0911101C083E0EF2DE81B8F1508F090
:100B8000E0E0D6018E2F20E2552351F1992329F080
:100B9000D6019C93C60101966C0196012D5F3F4FD3
:100BA000E2FE24C08EE4D6018C9391E411969C93CE
:100BB000119712968C93D9018E2F90E281111BC050
:100BC000E20FF32FF11D10828EEF9FEF2996ECE0DC
:100BD0000C942E089DE2C6CF90E2C4CF2D93815095
:100BE0008111FCCFCE0ED11CE0E0D0CF8EE6D60135
:100BF0008C9391E6DBCF9D938150E0CF482F4470DA
:100C000082FF3DC084E0911101C083E08F1510F494
:100C1000EF2DE81BD6018E2F20E2552309F19923F1
:100C200029F0D6019C93C60101966C0196012D5FB7
:100C30003F4FE2FE1BC089E4D6018C938EE41196EF
:100C40008C93119786E412968C93D9018E2F90E2A3
:100C5000882309F4B5CF9D938150FACF2D9381500D
:100C60008111FCCFCE0ED11CE0E0D9CF89E6D601B0
:100C70008C938EE611968C93119786E6E4CF9B01B8
:100C800077FF02C030E020E0A1E0B0E0911102C0A7
:100C9000B0E0A0E0F9013196AE0FBF1F8B2C912C74
:100CA000BB2009F461C05401EFEFAE1ABE0AAA0DD1
:100CB000BB1DFA161B0619F014F04F2D4A1B5111DB
:100CC00088C0E3FC59C07601A42FB0E2A1114FC047
:100CD000C40ED11C992309F45BC040E0D6011196E3
:100CE000F60190836D01552309F448C0012F060FCA
:100CF0009A81582F507184FF03C0913309F4015039
:100D000010160CF047C0093008F008E0EEE2FE2EA5
:100D10005B01A01AB10885019194819491082F3F3D
:100D2000320729F4D601FC92F60131966F01621761
:100D3000730794F1021713077CF5DB01A21BB30BB9
:100D4000AA24A394B12CAC0EBD1EAA0DBB1D1196F6
:100D50008C9121503109D601119628153905F4F0EE
:100D6000F60180836D01DBCFB12CA12CA0CFF70160
:100D7000B1937F01A150AACF9111B0CFD601942F8A
:100D800050E302C05D9391509111FCCFC40ED11C71
:100D900040E0ACCF01E0BACF80E3DBCF621773074E
:100DA00031F4963388F4953311F4552369F0F60144
:100DB0008083FD01842F90E2811108C0A40FB11D32
:100DC0001C9290E080E002CF81E3F1CF91938150BB
:100DD000F3CF911183CF8ACF283008F027E0332753
:100DE000DA01990F311D87FD91600096610571054B
:100DF00039F432602E5F3D9330E32A95E1F7089590
:100E00009F3F30F080387105610509F03C5F3C5F21
:100E10003D93913008F08068911DDF93CF931F932D
:100E20000F93FF92EF92192F987F9695E92F969541
:100E30009695E90FFF27EE53FF4F99273327EE24AE
:100E4000FF24A701E70105900894079428F4360FC2
:100E5000E71EF81E491F511D660F771F881F991F37
:100E60000694A1F70590079428F4E70EF81E491F91
:100E7000561FC11D770F881F991F661F0694A1F783
:100E80000590079428F4F80E491F561FC71FD11D5F
:100E9000880F991F661F771F0694A1F70590079486
:100EA00020F4490F561FC71FD81F990F661F771FC1
:100EB000881F0694A9F784911095177041F0D69574
:100EC000C79557954795F794E7941A95C1F7E8E6C3
:100ED000F0E0689415901591359165919591059084
:100EE0007FE27395E118F10A430B560BC90BD00949
:100EF000C0F7E10CF11E431F561FC91FD01D7EF421
:100F0000703311F48A95E6CFE894015030F0080F61
:100F10000AF40027021708F4202F2395022F7A33B2
:100F200028F079E37D932A95E9F710C07D932A95FF
:100F300089F6069497956795379517951794E11854
:100F4000F10A430B560BC90BD00998F023957E91FB
:100F500073957A3308F070E37C932013B8F77E9191
:100F600070617D9330F0839571E37D9370E32A95F2
:100F7000E1F71124EF90FF900F911F91CF91DF9136
:100F8000992787FD90950895E89409C097FB3EF452
:100F900090958095709561957F4F8F4F9F4F9923C6
:100FA000A9F0F92F96E9BB279395F6958795779544
:100FB0006795B795F111F8CFFAF4BB0F11F460FF04
:100FC0001BC06F5F7F4F8F4F9F4F16C0882311F05C
:100FD00096E911C0772321F09EE8872F762F05C070
:100FE000662371F096E8862F70E060E02AF09A950B
:100FF000660F771F881FDAF7880F9695879597F900
:1010000008950E944308A59F900DB49F900DA49F42
:10101000800D911D112408952F923F924F925F925F
:101020006F927F928F929F92AF92BF92CF92DF92F8
:10103000EF92FF920F931F93CF93DF93CDB7DEB75D
:10104000CA1BDB0B0FB6F894DEBF0FBECDBF0994F1
:101050002A88398848885F846E847D848C849B8448
:10106000AA84B984C884DF80EE80FD800C811B8156
:10107000AA81B981CE0FD11D0FB6F894DEBF0FBE85
:10108000CDBFED010895A29FB001B39FC001A39F02
:10109000700D811D1124911DB29F700D811D1124B1
:1010A000911D089597FB072E16F4009407D077FD45
:1010B00009D00E94660807FC05D03EF49095819502
:1010C0009F4F0895709561957F4F0895AA1BBB1B94
:1010D00051E107C0AA1FBB1FA617B70710F0A61B38
:1010E000B70B881F991F5A95A9F780959095BC0159
:1010F000CD010895EE0FFF1F0590F491E02D0994A6
:101100000F931F93CF93DF938230910510F482E009
:1011100090E0E0911E02F0911F0230E020E0B0E08C
:10112000A0E0309799F42115310509F44AC0281B35
:10113000390B24303105D8F58A819B816115710501
:1011400089F1FB0193838283FE0111C040815181AB
:101150000281138148175907E0F04817590799F49D
:10116000109761F012960C93129713961C93329677
:10117000CF01DF91CF911F910F91089500931E022F
:1011800010931F02F4CF2115310551F04217530778
:1011900038F0A901DB019A01BD01DF01F801C1CFDF
:1011A000EF01F9CF90931F0280931E02CDCFFE0175
:1011B000E20FF31F819391932250310939832883E1
:1011C000D7CF20911C0230911D02232B41F4209196
:1011D00002013091030130931D0220931C022091E3
:1011E0000001309101012115310541F42DB73EB7C1
:1011F0004091040150910501241B350BE0911C0224
:10120000F0911D02E217F307A0F42E1B3F0B2817E5
:10121000390778F0AC014E5F5F4F2417350748F06F
:101220004E0F5F1F50931D0240931C0281939193B8
:101230009FCFF0E0E0E09CCFCF93DF930097E9F001
:10124000FC01329713821282A0911E02B0911F02FC
:10125000ED0130E020E01097A1F420813181820F70
:10126000931F20911C0230911D022817390709F0A5
:1012700061C0F0931D02E0931C02DF91CF910895AD
:10128000EA01CE17DF07E8F54A815B819E0141152F
:101290005105B1F7E901FB83EA8349915991C40FE4
:1012A000D51FEC17FD0761F4808191810296840FB0
:1012B000951FE90199838883828193819B838A8327
:1012C000F0E0E0E012968D919C9113970097B9F5AC
:1012D0002D913C911197CD010296820F931F209181
:1012E0001C0230911D022817390739F6309751F545
:1012F00010921F0210921E02B0931D02A0931C02B6
:10130000BCCFD383C28340815181840F951FC817FE
:10131000D90761F44E5F5F4F88819981480F591F4B
:10132000518340838A819B81938382832115310578
:1013300009F0B0CFF0931F02E0931E029ECFFD0193
:10134000DC01C0CF13821282D7CFB0E0A0E0EBEA7D
:10135000F9E00C940E088C01009751F4CB010E9427
:1013600080088C01C801CDB7DEB7E0E10C942A08F3
:10137000FC01E60FF71F9C0122503109E217F30729
:1013800008F49DC0D901CD91DC911197C617D707FC
:1013900098F0C530D10530F3CE0104978617970732
:1013A00008F3C61BD70B2297C193D1936D937C93FF
:1013B000CF010E941C09D6CF5B01AC1ABD0A4C01BB
:1013C0008C0E9D1EA0911E02B0911F02512C412C2B
:1013D000F12CE12C109731F580911C0290911D02A7
:1013E0008815990509F05CC04616570608F058C0E4
:1013F0008091000190910101009741F48DB79EB753
:101400004091040150910501841B950BE817F907E1
:1014100008F055C0F0931D02E0931C02F90171839E
:101420006083A0CF8D919C91119712966C9012972A
:1014300013967C901397A815B90559F56C0142E0F5
:10144000C40ED11CCA14DB0420F1AC014A195B099B
:10145000DA011296159780F062827382518340837D
:10146000D9016D937C93E114F10471F0D7011396C7
:10147000FC93EE93129776CF22968C0F9D1FF90165
:1014800091838083F301EFCFF0931F02E0931E025C
:1014900069CF4816590608F42C017D01D3019ACF73
:1014A000CB010E9480087C01009749F0AE01B80191
:1014B0000E94620AC8010E941C09870153CF10E0F4
:1014C00000E050CFFB01DC0102C001900D924150C1
:1014D0005040D8F70895FB01DC0101900D920020E7
:1014E000E1F7089510E0C2EBD0E004C0FE010E94D5
:0E14F0007A082196C33BD107C9F7F894FFCFC5
:1014FE0000002002800000000000D601DD00230164
:10150E0023029401320146010D0A00496E6772658D
:10151E00736520756E206E756D65726F3A20004290
:10152E0069656E76656E69646F3A2000456C207051
:10153E00726F6D6564696F206465206C6F73206EC9
:10154E00756D65726F73206461646F732065733A95
:02155E0020006B
:00000001FF
