:100000000C9436000C945E000C945E000C945E0020
:100010000C945E000C945E000C945E000C945E00E8
:100020000C945E000C945E000C945E000C945E00D8
:100030000C945E000C945E000C945E000C945E00C8
:100040000C9417030C945E000C94E5020C94BF0210
:100050000C945E000C945E000C945E000C945E00A8
:100060000C945E000C945E006103EC0411241FBE2E
:10007000CFEFD8E0DEBFCDBF22E0A8E5B1E001C000
:100080001D92AC30B207E1F711E0A0E0B1E0EEE183
:10009000F3E102C005900D92A835B107D9F710E041
:1000A000C5E3D0E004C02197FE010E948A07C43353
:1000B000D107C9F70E94EC030C9482090C9400004C
:1000C000AF92BF92CF92DF92EF92FF920F931F9366
:1000D000CF93DF936C017B018B01040F151FEB01A4
:1000E0005E01AE18BF08C017D10759F06991D6015B
:1000F000ED91FC910190F081E02DC6010995892BCD
:1001000079F7C501DF91CF911F910F91FF90EF908B
:10011000DF90CF90BF90AF900895FC01538D448D38
:10012000252F30E0842F90E0821B930B541710F0A2
:10013000CF96089501970895FC01918D828D9817AF
:1001400061F0A28DAE0FBF2FB11D5D968C91928D87
:100150009F5F9F73928F90E008958FEF9FEF0895B8
:10016000FC01918D828D981731F0828DE80FF11D81
:10017000858D90E008958FEF9FEF0895FC01918D9C
:10018000228D892F90E0805C9F4F821B91098F7395
:100190009927089585E691E00E94BE0021E0892B11
:1001A00009F420E0822F089580E090E0892B29F067
:1001B0000E94CA0081110C9400000895FC01A48DD6
:1001C000A80FB92FB11DA35ABF4F2C91848D90E079
:1001D00001968F739927848FA689B7892C93A0895C
:1001E000B1898C91837080648C93938D848D9813E6
:1001F00006C00288F389E02D80818F7D8083089579
:10020000EF92FF920F931F93CF93DF93EC0181E066
:10021000888F9B8D8C8D98131AC0E889F98980810D
:1002200085FF15C09FB7F894EE89FF896083E88940
:10023000F98980818370806480839FBF81E090E032
:10024000DF91CF911F910F91FF90EF900895F62EBF
:100250000B8D10E00F5F1F4F0F731127E02E8C8D59
:100260008E110CC00FB607FCFACFE889F98980819E
:1002700085FFF5CFCE010E94DE00F1CFEB8DEC0FB4
:10028000FD2FF11DE35AFF4FF0829FB7F8940B8FBB
:10029000EA89FB8980818062CFCFCF93DF93EC0125
:1002A000888D8823B9F0AA89BB89E889F9898C915E
:1002B00085FD03C0808186FD0DC00FB607FCF7CF1A
:1002C0008C9185FFF2CF808185FFEDCFCE010E941A
:1002D000DE00E9CFDF91CF9108953FB7F894809188
:1002E0005D0190915E01A0915F01B091600126B522
:1002F000A89B05C02F3F19F00196A11DB11D3FBF5E
:10030000BA2FA92F982F8827BC01CD01620F711D2C
:10031000811D911D42E0660F771F881F991F4A9526
:10032000D1F70895FC0101900020E9F73197AF0162
:10033000481B590BBC0185E691E00C9460008F923C
:100340009F92AF92BF920F931F93CF93DF93CDB73E
:10035000DEB7A1970FB6F894DEBF0FBECDBF19A2CE
:10036000423008F44AE08E010F5D1F4F842E912C1D
:10037000B12CA12CA50194010E946807E62FB901B8
:10038000CA01EA30F4F4E05DD801EE938D01232B2D
:10039000242B252B79F790E080E0109719F0CD0100
:1003A0000E949201A1960FB6F894DEBF0FBECDBF9A
:1003B000DF91CF911F910F91BF90AF909F908F9041
:1003C0000895E95CE1CF4F925F926F927F928F9296
:1003D0009F92AF92BF92CF92DF92EF92FF920F93D4
:1003E0001F93CF936B017C01742EAC019B010E9483
:1003F0006307882399F08EE191E0CF911F910F91CF
:10040000FF90EF90DF90CF90BF90AF909F908F9034
:100410007F906F905F904F900C949201460157012E
:10042000E894B7F82FEF3FEF4FE75FE7C501B4015E
:100430000E94630781110DC02FEF3FEF4FE75FE789
:10044000C501B4010E94F50418161CF482E291E083
:10045000D4CF2FEF3FEF4FE75FE4C701B6010E9413
:100460005E0718161CF486E291E0C7CF2FEF3FEF2E
:100470004FE75FECC701B6010E94F50487FDF3CF9B
:1004800020E030E0A901C701B6010E94F50410E0A8
:1004900000E087FF0AC06DE285E691E00E9400015E
:1004A0008C01F7FAF094F7F8F094C0E060E070E0A7
:1004B00080E09FE37C1641F020E030E040E251E430
:1004C0000E94BD06CF5FF6CFA70196010E9451069C
:1004D0002B013C010E942F074B015C014AE00E9466
:1004E0009F017C01E00EF11ECC23C1F1C501B401D6
:1004F0000E94FA049B01AC01C301B2010E945006A4
:100500004B015C016EE285E691E00E940001E80E7D
:10051000F91EC15018F120E030E040E251E4C5017D
:10052000B4010E945B052B013C010E942F074B0187
:10053000B12CA12C4AE0C501B4010E949F01E80E34
:10054000F91EC501B4010E94FA049B01AC01C3016C
:10055000B2010E9450064B015C01DBCFC701CF9175
:100560001F910F91FF90EF90DF90CF90BF90AF90D1
:100570009F908F907F906F905F904F9008951F9203
:100580000F920FB60F9211242F933F934F935F93C7
:100590006F937F938F939F93AF93BF93EF93FF934B
:1005A00085E691E00E94DE00FF91EF91BF91AF914F
:1005B0009F918F917F916F915F914F913F912F917B
:1005C0000F900FBE0F901F9018951F920F920FB6AD
:1005D0000F9211242F938F939F93EF93FF93E091AA
:1005E0007501F09176018081E0917B01F0917C01B1
:1005F00082FD1BC0908180917E018F5F8F7320915F
:100600007F01821741F0E0917E01F0E0EB59FE4F4F
:10061000958F80937E01FF91EF919F918F912F9104
:100620000F900FBE0F901F9018958081F4CF1F92EE
:100630000F920FB60F9211242F933F938F939F9396
:10064000AF93BF938091590190915A01A0915B01A2
:10065000B0915C013091580123E0230F2D3758F5FC
:100660000196A11DB11D20935801809359019093CB
:100670005A01A0935B01B0935C0180915D01909160
:100680005E01A0915F01B09160010196A11DB11DB5
:1006900080935D0190935E01A0935F01B093600130
:1006A000BF91AF919F918F913F912F910F900FBE6E
:1006B0000F901F90189526E8230F0296A11DB11DDB
:1006C000D2CF109268011092670188EE93E0A0E00B
:1006D000B0E08093690190936A01A0936B01B0939D
:1006E0006C0180E191E0909366018093650185EC57
:1006F00090E0909372018093710184EC90E090936C
:1007000074018093730180EC90E090937601809364
:10071000750181EC90E0909378018093770182ECF1
:1007200090E090937A018093790186EC90E0909329
:100730007C0180937B0110927E0110927F011092C8
:100740008001109281011092030210920202109215
:10075000050210920402109207021092060264E150
:1007600070E090E080E00E94B508009701F190935E
:1007700003028093020223E130E0309305022093CC
:1007800004022091060230910702232B11F4FC0190
:10079000108283E190E090930702809306026AE260
:1007A00071E080910202909103020C947B09809188
:1007B000020290910302009711F00E942C081092FF
:1007C0000302109202021092070210920602109287
:1007D0000502109204020895789484B5826084BD65
:1007E00084B5816084BD85B5826085BD85B5816035
:1007F00085BD80916E00816080936E0010928100B3
:10080000809181008260809381008091810081606D
:10081000809381008091800081608093800080912E
:10082000B10084608093B1008091B00081608093BA
:10083000B00080917A00846080937A0080917A0081
:10084000826080937A0080917A00816080937A0040
:1008500080917A00806880937A001092C100E091C4
:100860007501F091760182E08083E0917101F09151
:1008700072011082E0917301F09174018FEC80831A
:1008800010927D01E0917901F0917A0186E08083F8
:10089000E0917701F0917801808180618083E0911F
:1008A0007701F0917801808188608083E091770101
:1008B000F0917801808180688083E0917701F091E8
:1008C000780180818F7D8083C0E0D0E06091040159
:1008D00070910501CB0101970A9708F072C0072EAD
:1008E000000C880B990B0E94FC049B01AC01209327
:1008F0006101309362014093630150936401609100
:1009000000017091010180910201909103010E9408
:100910005B05609300017093010180930201909345
:1009200003018EE391E00E94920160916101709158
:100930006201809163019091640142E00E94E301B1
:100940008FE491E00E949201609100017091010199
:10095000809102019091030142E00E94E30184E54D
:1009600091E00E949201809104019091050101970C
:1009700090930501809304010E946D014B015C017D
:1009800088EEC82E83E0D82EE12CF12C0E946D0158
:10099000681979098A099B09683E734081059105A8
:1009A000A8F321E0C21AD108E108F10888EE880E08
:1009B00083E0981EA11CB11CC114D104E104F10410
:1009C00029F7209709F482CF0E94CA00882309F4EE
:1009D0007DCF0E9400007ACF8091020290910302A5
:1009E000009711F00C942C0808950E94370508F424
:1009F00081E00895E89409C097FB3EF490958095B6
:100A0000709561957F4F8F4F9F4F9923A9F0F92FD4
:100A100096E9BB279395F695879577956795B79552
:100A2000F111F8CFFAF4BB0F11F460FF1BC06F5F38
:100A30007F4F8F4F9F4F16C0882311F096E911C04A
:100A4000772321F09EE8872F762F05C0662371F06B
:100A500096E8862F70E060E02AF09A95660F771F7F
:100A6000881FDAF7880F9695879597F90895990F5B
:100A70000008550FAA0BE0E8FEEF16161706E80768
:100A8000F907C0F012161306E407F50798F0621B89
:100A9000730B840B950B39F40A2661F0232B242B5E
:100AA000252B21F408950A2609F4A140A6958FEF7D
:100AB000811D811D08950E946E050C94DF050E9422
:100AC000D10538F00E94D80520F0952311F00C9440
:100AD000C8050C94CE0511240C9413060E94F00551
:100AE00070F3959FC1F3950F50E0551F629FF00181
:100AF000729FBB27F00DB11D639FAA27F00DB11D9A
:100B0000AA1F649F6627B00DA11D661F829F222722
:100B1000B00DA11D621F739FB00DA11D621F839FA9
:100B2000A00D611D221F749F3327A00D611D231F7F
:100B3000849F600D211D822F762F6A2F11249F57CD
:100B400050409AF0F1F088234AF0EE0FFF1FBB1FD0
:100B5000661F771F881F91505040A9F79E3F51058F
:100B600080F00C94C8050C9413065F3FE4F3983EA4
:100B7000D4F3869577956795B795F795E7959F5F39
:100B8000C1F7FE2B880F911D9695879597F90895CB
:100B900097F99F6780E870E060E008959FEF80EC30
:100BA000089500240A9416161706180609060895D3
:100BB00000240A9412161306140605060895092E39
:100BC0000394000C11F4882352F0BB0F40F4BF2BA8
:100BD00011F460FF04C06F5F7F4F8F4F9F4F0895E8
:100BE00057FD9058440F551F59F05F3F71F04795DE
:100BF000880F97FB991F61F09F3F79F087950895C3
:100C0000121613061406551FF2CF4695F1DF08C0E1
:100C1000161617061806991FF1CF869571056105FE
:100C200008940895E894BB2766277727CB0197F9A6
:100C300008952F923F924F925F926F927F928F9280
:100C40009F92AF92BF92CF92DF92EF92FF920F935B
:100C50001F93CF93DF93CDB7DEB7CA1BDB0B0FB665
:100C6000F894DEBF0FBECDBF09942A883988488822
:100C70005F846E847D848C849B84AA84B984C884B8
:100C8000DF80EE80FD800C811B81AA81B981CE0FAF
:100C9000D11D0FB6F894DEBF0FBECDBFED01089594
:100CA0005058BB27AA270E9468060C94DF050E94B3
:100CB000D10538F00E94D80520F039F49F3F19F48F
:100CC00026F40C94CE050EF4E095E7FB0C94C805D1
:100CD000E92F0E94F00558F3BA17620773078407DB
:100CE000950720F079F4A6F50C9412060EF4E09521
:100CF0000B2EBA2FA02D0B01B90190010C01CA01D6
:100D0000A0011124FF27591B99F0593F50F4503E80
:100D100068F11A16F040A22F232F342F4427585F72
:100D2000F3CF469537952795A795F0405395C9F78A
:100D30007EF41F16BA0B620B730B840BBAF0915042
:100D4000A1F0FF0FBB1F661F771F881FC2F70EC0E1
:100D5000BA0F621F731F841F48F4879577956795B4
:100D6000B795F7959E3F08F0B0CF9395880F08F0A0
:100D70009927EE0F9795879508950E94D1060C94B8
:100D8000DF050E94D80558F00E94D10540F029F4F3
:100D90005F3F29F00C94C80551110C9413060C9474
:100DA000CE050E94F00568F39923B1F3552391F322
:100DB000951B550BBB27AA2762177307840738F0CA
:100DC0009F5F5F4F220F331F441FAA1FA9F335D027
:100DD0000E2E3AF0E0E832D091505040E695001CDB
:100DE000CAF72BD0FE2F29D0660F771F881FBB1F95
:100DF000261737074807AB07B0E809F0BB0B802D73
:100E0000BF01FF2793585F4F3AF09E3F510578F09E
:100E10000C94C8050C9413065F3FE4F3983ED4F39A
:100E2000869577956795B795F7959F5FC9F7880F72
:100E3000911D9695879597F90895E1E0660F771FC4
:100E4000881FBB1F621773078407BA0720F0621B55
:100E5000730B840BBA0BEE1F88F7E09508950E9480
:100E6000F80588F09F5798F0B92F9927B751B0F03F
:100E7000E1F0660F771F881F991F1AF0BA95C9F71E
:100E800014C0B13091F00E941206B1E008950C94A4
:100E90001206672F782F8827B85F39F0B93FCCF357
:100EA000869577956795B395D9F73EF4909580959B
:100EB000709561957F4F8F4F9F4F08950E94370522
:100EC00008F48FEF08950E943705880B990B089559
:100ED000A1E21A2EAA1BBB1BFD010DC0AA1FBB1F3E
:100EE000EE1FFF1FA217B307E407F50720F0A21BB0
:100EF000B30BE40BF50B661F771F881F991F1A941D
:100F000069F760957095809590959B01AC01BD0146
:100F1000CF010895EE0FFF1F0590F491E02D099485
:100F20000F931F93CF93DF938230910510F482E0EB
:100F300090E0E0910A02F0910B0230E020E0B0E096
:100F4000A0E0309799F42115310509F44AC0281B17
:100F5000390B24303105D8F58A819B8161157105E3
:100F600089F1FB0193838283FE0111C0408151818D
:100F70000281138148175907E0F04817590799F47F
:100F8000109761F012960C93129713961C93329659
:100F9000CF01DF91CF911F910F91089500930A0225
:100FA00010930B02F4CF2115310551F0421753076E
:100FB00038F0A901DB019A01BD01DF01F801C1CFC1
:100FC000EF01F9CF90930B0280930A02CDCFFE017F
:100FD000E20FF31F819391932250310939832883C3
:100FE000D7CF2091080230910902232B41F42091A0
:100FF00008013091090130930902209308022091E1
:101000000601309107012115310541F42DB73EB796
:1010100040910A0150910B01241B350BE09108020D
:10102000F0910902E217F307A0F42E1B3F0B2817DB
:10103000390778F0AC014E5F5F4F2417350748F051
:101040004E0F5F1F509309024093080281939193C2
:101050009FCFF0E0E0E09CCFCF93DF930097E9F0E3
:10106000FC01329713821282A0910A02B0910B0206
:10107000ED0130E020E01097A1F420813181820F52
:10108000931F20910802309109022817390709F0AF
:1010900061C0F0930902E0930802DF91CF910895B7
:1010A000EA01CE17DF07E8F54A815B819E01411511
:1010B0005105B1F7E901FB83EA8349915991C40FC6
:1010C000D51FEC17FD0761F4808191810296840F92
:1010D000951FE90199838883828193819B838A8309
:1010E000F0E0E0E012968D919C9113970097B9F58E
:1010F0002D913C911197CD010296820F931F209163
:101100000802309109022817390739F6309751F54E
:1011100010920B0210920A02B0930902A0930802E7
:10112000BCCFD383C28340815181840F951FC817E0
:10113000D90761F44E5F5F4F88819981480F591F2D
:10114000518340838A819B8193838283211531055A
:1011500009F0B0CFF0930B02E0930A029ECFFD019D
:10116000DC01C0CF13821282D7CFB0E0A0E0EBEB5E
:10117000F8E00C941B068C01009751F4CB010E94FF
:1011800090078C01C801CDB7DEB7E0E10C943706BB
:10119000FC01E60FF71F9C0122503109E217F3070B
:1011A00008F49DC0D901CD91DC911197C617D707DE
:1011B00098F0C530D10530F3CE0104978617970714
:1011C00008F3C61BD70B2297C193D1936D937C93E1
:1011D000CF010E942C08D6CF5B01AC1ABD0A4C018E
:1011E0008C0E9D1EA0910A02B0910B02512C412C35
:1011F000F12CE12C109731F58091080290910902B1
:101200008815990509F05CC04616570608F058C0C5
:101210008091060190910701009741F48DB79EB728
:1012200040910A0150910B01841B950BE817F907B7
:1012300008F055C0F0930902E0930802F9017183A8
:101240006083A0CF8D919C91119712966C9012970C
:1012500013967C901397A815B90559F56C0142E0D7
:10126000C40ED11CCA14DB0420F1AC014A195B097D
:10127000DA011296159780F062827382518340835F
:10128000D9016D937C93E114F10471F0D7011396A9
:10129000FC93EE93129776CF22968C0F9D1FF90147
:1012A00091838083F301EFCFF0930B02E0930A0266
:1012B00069CF4816590608F42C017D01D3019ACF55
:1012C000CB010E9490077C01009749F0AE01B80164
:1012D0000E947209C8010E942C08870153CF10E0B8
:1012E00000E050CFFB01DC0102C001900D924150A3
:1012F0005040D8F70895FB01DC0101900D920020C9
:10130000E1F7089510E0C5E3D0E004C0FE010E94BB
:0E1310008A072196C633D107C9F7F894FFCF9C
:10131E000000803F0A0000000C0280000000000068
:10132E00000160008D004D01BE009C00B0006E619A
:10133E006E00696E66006F766600496E6772657341
:10134E006520656C206E756D65726F3A2000456C78
:10135E0020666163746F7269616C20646520002081
:08136E00657320000D0A000068
:00000001FF
